{
  "contractName": "Contest",
  "abi": [
    {
      "constant": true,
      "inputs": [],
      "name": "stage",
      "outputs": [
        {
          "name": "",
          "type": "uint8"
        }
      ],
      "payable": false,
      "stateMutability": "view",
      "type": "function"
    },
    {
      "constant": true,
      "inputs": [
        {
          "name": "",
          "type": "address"
        }
      ],
      "name": "submisstions",
      "outputs": [
        {
          "name": "content",
          "type": "string"
        },
        {
          "name": "isSubmitted",
          "type": "bool"
        },
        {
          "name": "begin",
          "type": "uint256"
        },
        {
          "name": "end",
          "type": "uint256"
        }
      ],
      "payable": false,
      "stateMutability": "view",
      "type": "function"
    },
    {
      "inputs": [
        {
          "name": "mTitle",
          "type": "string"
        },
        {
          "name": "mDesc",
          "type": "string"
        },
        {
          "name": "mDDL",
          "type": "uint256"
        },
        {
          "name": "mCost",
          "type": "uint256"
        },
        {
          "name": "mBonus",
          "type": "uint256"
        },
        {
          "name": "mContent",
          "type": "string"
        },
        {
          "name": "mAnswer",
          "type": "string"
        }
      ],
      "payable": true,
      "stateMutability": "payable",
      "type": "constructor"
    },
    {
      "anonymous": false,
      "inputs": [
        {
          "indexed": false,
          "name": "",
          "type": "string"
        },
        {
          "indexed": false,
          "name": "",
          "type": "string"
        },
        {
          "indexed": false,
          "name": "",
          "type": "bool"
        },
        {
          "indexed": false,
          "name": "",
          "type": "uint256"
        }
      ],
      "name": "Log",
      "type": "event"
    },
    {
      "anonymous": false,
      "inputs": [
        {
          "indexed": false,
          "name": "",
          "type": "string"
        },
        {
          "indexed": false,
          "name": "",
          "type": "uint256"
        }
      ],
      "name": "LogInt",
      "type": "event"
    },
    {
      "anonymous": false,
      "inputs": [
        {
          "indexed": false,
          "name": "",
          "type": "string"
        },
        {
          "indexed": false,
          "name": "",
          "type": "address"
        }
      ],
      "name": "LogAddress",
      "type": "event"
    },
    {
      "constant": false,
      "inputs": [],
      "name": "partcipate",
      "outputs": [],
      "payable": true,
      "stateMutability": "payable",
      "type": "function"
    },
    {
      "constant": false,
      "inputs": [
        {
          "name": "_content",
          "type": "string"
        }
      ],
      "name": "submit",
      "outputs": [],
      "payable": false,
      "stateMutability": "nonpayable",
      "type": "function"
    },
    {
      "constant": false,
      "inputs": [],
      "name": "getContestBaseInfo",
      "outputs": [
        {
          "name": "",
          "type": "string"
        },
        {
          "name": "",
          "type": "bool"
        },
        {
          "name": "",
          "type": "string"
        },
        {
          "name": "",
          "type": "address"
        },
        {
          "name": "",
          "type": "uint256"
        },
        {
          "name": "",
          "type": "uint256"
        },
        {
          "name": "",
          "type": "uint256"
        }
      ],
      "payable": false,
      "stateMutability": "nonpayable",
      "type": "function"
    },
    {
      "constant": false,
      "inputs": [],
      "name": "getContestContent",
      "outputs": [
        {
          "name": "",
          "type": "string"
        }
      ],
      "payable": false,
      "stateMutability": "nonpayable",
      "type": "function"
    },
    {
      "constant": false,
      "inputs": [],
      "name": "getContestAllInfo",
      "outputs": [
        {
          "name": "",
          "type": "string"
        },
        {
          "name": "",
          "type": "bool"
        },
        {
          "name": "",
          "type": "string"
        },
        {
          "name": "",
          "type": "address"
        },
        {
          "name": "",
          "type": "uint256"
        },
        {
          "name": "",
          "type": "uint256"
        },
        {
          "name": "",
          "type": "uint256"
        },
        {
          "name": "",
          "type": "string"
        },
        {
          "name": "",
          "type": "string"
        },
        {
          "name": "",
          "type": "address"
        }
      ],
      "payable": false,
      "stateMutability": "nonpayable",
      "type": "function"
    }
  ],
  "bytecode": "0x60806040526064600a556000600d60006101000a81548160ff021916908360028111156200002957fe5b0217905550604051620022a2380380620022a28339810180604052810190808051820192919060200180518201929190602001805190602001909291908051906020019092919080519060200190929190805182019291906020018051820192919050505082600a54013410151515620000a257600080fd5b600085111515620000b257600080fd5b8660009080519060200190620000ca929190620001da565b506000600160006101000a81548160ff0219169083151502179055508560029080519060200190620000fe929190620001da565b5033600360006101000a81548173ffffffffffffffffffffffffffffffffffffffff021916908373ffffffffffffffffffffffffffffffffffffffff160217905550603c850242016004819055508360058190555082600681905550816007908051906020019062000172929190620001da565b5080600890805190602001906200018b929190620001da565b5033600960006101000a81548173ffffffffffffffffffffffffffffffffffffffff021916908373ffffffffffffffffffffffffffffffffffffffff1602179055505050505050505062000289565b828054600181600116156101000203166002900490600052602060002090601f016020900481019282601f106200021d57805160ff19168380011785556200024e565b828001600101855582156200024e579182015b828111156200024d57825182559160200191906001019062000230565b5b5090506200025d919062000261565b5090565b6200028691905b808211156200028257600081600090555060010162000268565b5090565b90565b61200980620002996000396000f300608060405260043610610083576000357c0100000000000000000000000000000000000000000000000000000000900463ffffffff1680632738c25a14610088578063495e03a3146101d7578063c040e6b814610431578063d99a8dc31461046a578063f1ba2d54146104d3578063f2a3041614610563578063f3b51b0d14610638575b600080fd5b34801561009457600080fd5b5061009d610642565b604051808060200188151515158152602001806020018773ffffffffffffffffffffffffffffffffffffffff1673ffffffffffffffffffffffffffffffffffffffff16815260200186815260200185815260200184815260200183810383528a818151815260200191508051906020019080838360005b8381101561012f578082015181840152602081019050610114565b50505050905090810190601f16801561015c5780820380516001836020036101000a031916815260200191505b50838103825288818151815260200191508051906020019080838360005b8381101561019557808201518184015260208101905061017a565b50505050905090810190601f1680156101c25780820380516001836020036101000a031916815260200191505b50995050505050505050505060405180910390f35b3480156101e357600080fd5b506101ec610879565b60405180806020018b151515158152602001806020018a73ffffffffffffffffffffffffffffffffffffffff1673ffffffffffffffffffffffffffffffffffffffff16815260200189815260200188815260200187815260200180602001806020018673ffffffffffffffffffffffffffffffffffffffff1673ffffffffffffffffffffffffffffffffffffffff16815260200185810385528f818151815260200191508051906020019080838360005b838110156102b857808201518184015260208101905061029d565b50505050905090810190601f1680156102e55780820380516001836020036101000a031916815260200191505b5085810384528d818151815260200191508051906020019080838360005b8381101561031e578082015181840152602081019050610303565b50505050905090810190601f16801561034b5780820380516001836020036101000a031916815260200191505b50858103835288818151815260200191508051906020019080838360005b83811015610384578082015181840152602081019050610369565b50505050905090810190601f1680156103b15780820380516001836020036101000a031916815260200191505b50858103825287818151815260200191508051906020019080838360005b838110156103ea5780820151818401526020810190506103cf565b50505050905090810190601f1680156104175780820380516001836020036101000a031916815260200191505b509e50505050505050505050505050505060405180910390f35b34801561043d57600080fd5b50610446610c84565b6040518082600281111561045657fe5b60ff16815260200191505060405180910390f35b34801561047657600080fd5b506104d1600480360381019080803590602001908201803590602001908080601f0160208091040260200160405190810160405280939291908181526020018383808284378201915050505050509192919290505050610c97565b005b3480156104df57600080fd5b506104e8610f6d565b6040518080602001828103825283818151815260200191508051906020019080838360005b8381101561052857808201518184015260208101905061050d565b50505050905090810190601f1680156105555780820380516001836020036101000a031916815260200191505b509250505060405180910390f35b34801561056f57600080fd5b506105a4600480360381019080803573ffffffffffffffffffffffffffffffffffffffff169060200190929190505050611146565b604051808060200185151515158152602001848152602001838152602001828103825286818151815260200191508051906020019080838360005b838110156105fa5780820151818401526020810190506105df565b50505050905090810190601f1680156106275780820380516001836020036101000a031916815260200191505b509550505050505060405180910390f35b61064061121b565b005b6060600060606000806000806000600281111561065b57fe5b600d60009054906101000a900460ff16600281111561067657fe5b14801561068557506004544210155b1561069b5761069261142f565b61069a61147c565b5b600160028111156106a857fe5b600d60009054906101000a900460ff1660028111156106c357fe5b1480156106dc5750600160009054906101000a900460ff165b156106ea576106e961142f565b5b6000600160009054906101000a900460ff166002600360009054906101000a900473ffffffffffffffffffffffffffffffffffffffff16600454600554600654868054600181600116156101000203166002900480601f0160208091040260200160405190810160405280929190818152602001828054600181600116156101000203166002900480156107bf5780601f10610794576101008083540402835291602001916107bf565b820191906000526020600020905b8154815290600101906020018083116107a257829003601f168201915b50505050509650848054600181600116156101000203166002900480601f01602080910402602001604051908101604052809291908181526020018280546001816001161561010002031660029004801561085b5780601f106108305761010080835404028352916020019161085b565b820191906000526020600020905b81548152906001019060200180831161083e57829003601f168201915b50505050509450965096509650965096509650965090919293949596565b606060006060600080600080606080600080600281111561089657fe5b600d60009054906101000a900460ff1660028111156108b157fe5b1480156108c057506004544210155b156108d6576108cd61142f565b6108d561147c565b5b600160028111156108e357fe5b600d60009054906101000a900460ff1660028111156108fe57fe5b1480156109175750600160009054906101000a900460ff165b156109255761092461142f565b5b600360009054906101000a900473ffffffffffffffffffffffffffffffffffffffff1673ffffffffffffffffffffffffffffffffffffffff163373ffffffffffffffffffffffffffffffffffffffff161480610982575060045442115b151561098d57600080fd5b6000600160009054906101000a900460ff166002600360009054906101000a900473ffffffffffffffffffffffffffffffffffffffff1660045460055460065460076008600960009054906101000a900473ffffffffffffffffffffffffffffffffffffffff16898054600181600116156101000203166002900480601f016020809104026020016040519081016040528092919081815260200182805460018160011615610100020316600290048015610a895780601f10610a5e57610100808354040283529160200191610a89565b820191906000526020600020905b815481529060010190602001808311610a6c57829003601f168201915b50505050509950878054600181600116156101000203166002900480601f016020809104026020016040519081016040528092919081815260200182805460018160011615610100020316600290048015610b255780601f10610afa57610100808354040283529160200191610b25565b820191906000526020600020905b815481529060010190602001808311610b0857829003601f168201915b50505050509750828054600181600116156101000203166002900480601f016020809104026020016040519081016040528092919081815260200182805460018160011615610100020316600290048015610bc15780601f10610b9657610100808354040283529160200191610bc1565b820191906000526020600020905b815481529060010190602001808311610ba457829003601f168201915b50505050509250818054600181600116156101000203166002900480601f016020809104026020016040519081016040528092919081815260200182805460018160011615610100020316600290048015610c5d5780601f10610c3257610100808354040283529160200191610c5d565b820191906000526020600020905b815481529060010190602001808311610c4057829003601f168201915b50505050509150995099509950995099509950995099509950995090919293949596979899565b600d60009054906101000a900460ff1681565b610d2733600c805480602002602001604051908101604052809291908181526020018280548015610d1d57602002820191906000526020600020905b8160009054906101000a900473ffffffffffffffffffffffffffffffffffffffff1673ffffffffffffffffffffffffffffffffffffffff1681526020019060010190808311610cd3575b5050505050611ab2565b1515610d3257600080fd5b60006002811115610d3f57fe5b600d60009054906101000a900460ff166002811115610d5a57fe5b148015610d6957506004544210155b15610d7f57610d7661142f565b610d7e61147c565b5b60016002811115610d8c57fe5b600d60009054906101000a900460ff166002811115610da757fe5b148015610dc05750600160009054906101000a900460ff165b15610dce57610dcd61142f565b5b6000806002811115610ddc57fe5b600d60009054906101000a900460ff166002811115610df757fe5b141515610e0357600080fd5b6004544211151515610e1457600080fd5b600b60003373ffffffffffffffffffffffffffffffffffffffff1673ffffffffffffffffffffffffffffffffffffffff16815260200190815260200160002060010160009054906101000a900460ff16151515610e7057600080fd5b81600b60003373ffffffffffffffffffffffffffffffffffffffff1673ffffffffffffffffffffffffffffffffffffffff1681526020019081526020016000206000019080519060200190610ec6929190611eb8565b506001600b60003373ffffffffffffffffffffffffffffffffffffffff1673ffffffffffffffffffffffffffffffffffffffff16815260200190815260200160002060010160006101000a81548160ff02191690831515021790555042600b60003373ffffffffffffffffffffffffffffffffffffffff1673ffffffffffffffffffffffffffffffffffffffff168152602001908152602001600020600301819055505050565b6060610fff33600c805480602002602001604051908101604052809291908181526020018280548015610ff557602002820191906000526020600020905b8160009054906101000a900473ffffffffffffffffffffffffffffffffffffffff1673ffffffffffffffffffffffffffffffffffffffff1681526020019060010190808311610fab575b5050505050611ab2565b151561100a57600080fd5b6000600281111561101757fe5b600d60009054906101000a900460ff16600281111561103257fe5b14801561104157506004544210155b156110575761104e61142f565b61105661147c565b5b6001600281111561106457fe5b600d60009054906101000a900460ff16600281111561107f57fe5b1480156110985750600160009054906101000a900460ff165b156110a6576110a561142f565b5b60078054600181600116156101000203166002900480601f01602080910402602001604051908101604052809291908181526020018280546001816001161561010002031660029004801561113c5780601f106111115761010080835404028352916020019161113c565b820191906000526020600020905b81548152906001019060200180831161111f57829003601f168201915b5050505050905090565b600b602052806000526040600020600091509050806000018054600181600116156101000203166002900480601f0160208091040260200160405190810160405280929190818152602001828054600181600116156101000203166002900480156111f25780601f106111c7576101008083540402835291602001916111f2565b820191906000526020600020905b8154815290600101906020018083116111d557829003601f168201915b5050505050908060010160009054906101000a900460ff16908060020154908060030154905084565b6000600281111561122857fe5b600d60009054906101000a900460ff16600281111561124357fe5b14801561125257506004544210155b156112685761125f61142f565b61126761147c565b5b6001600281111561127557fe5b600d60009054906101000a900460ff16600281111561129057fe5b1480156112a95750600160009054906101000a900460ff165b156112b7576112b661142f565b5b60008060028111156112c557fe5b600d60009054906101000a900460ff1660028111156112e057fe5b1415156112ec57600080fd5b60055434101515156112fd57600080fd5b608060405190810160405280602060405190810160405280600081525081526020016000151581526020014281526020016000815250600b60003373ffffffffffffffffffffffffffffffffffffffff1673ffffffffffffffffffffffffffffffffffffffff168152602001908152602001600020600082015181600001908051906020019061138e929190611f38565b5060208201518160010160006101000a81548160ff0219169083151502179055506040820151816002015560608201518160030155905050600c3390806001815401808255809150509060018203906000526020600020016000909192909190916101000a81548173ffffffffffffffffffffffffffffffffffffffff021916908373ffffffffffffffffffffffffffffffffffffffff1602179055505050565b6001600d60009054906101000a900460ff16600281111561144c57fe5b01600281111561145857fe5b600d60006101000a81548160ff0219169083600281111561147557fe5b0217905550565b6000806000806000600281111561148f57fe5b600d60009054906101000a900460ff1660028111156114aa57fe5b1480156114b957506004544210155b156114cf576114c661142f565b6114ce61147c565b5b600160028111156114dc57fe5b600d60009054906101000a900460ff1660028111156114f757fe5b1480156115105750600160009054906101000a900460ff165b1561151e5761151d61142f565b5b600180600281111561152c57fe5b600d60009054906101000a900460ff16600281111561154757fe5b14151561155357600080fd5b600160009054906101000a900460ff1615151561156f57600080fd5b621000009450600093505b600c805490508410156119bd57600b6000600c8681548110151561159a57fe5b9060005260206000200160009054906101000a900473ffffffffffffffffffffffffffffffffffffffff1673ffffffffffffffffffffffffffffffffffffffff1673ffffffffffffffffffffffffffffffffffffffff168152602001908152602001600020925061171d6040805190810160405280600881526020017f5375626d69743a200000000000000000000000000000000000000000000000008152508460806040519081016040529081600082018054600181600116156101000203166002900480601f0160208091040260200160405190810160405280929190818152602001828054600181600116156101000203166002900480156116e05780601f106116b5576101008083540402835291602001916116e0565b820191906000526020600020905b8154815290600101906020018083116116c357829003601f168201915b505050505081526020016001820160009054906101000a900460ff1615151515815260200160028201548152602001600382015481525050611b30565b8260010160009054906101000a900460ff1680156118775750611876836000018054600181600116156101000203166002900480601f0160208091040260200160405190810160405280929190818152602001828054600181600116156101000203166002900480156117d15780601f106117a6576101008083540402835291602001916117d1565b820191906000526020600020905b8154815290600101906020018083116117b457829003601f168201915b505050505060088054600181600116156101000203166002900480601f01602080910402602001604051908101604052809291908181526020018280546001816001161561010002031660029004801561186c5780601f106118415761010080835404028352916020019161186c565b820191906000526020600020905b81548152906001019060200180831161184f57829003601f168201915b5050505050611c63565b5b156119b057826002015483600301540391506118c86040805190810160405280600681526020017f6c6173743a20000000000000000000000000000000000000000000000000000081525083611d3c565b848210156119af57819450600c848154811015156118e257fe5b9060005260206000200160009054906101000a900473ffffffffffffffffffffffffffffffffffffffff16600960006101000a81548173ffffffffffffffffffffffffffffffffffffffff021916908373ffffffffffffffffffffffffffffffffffffffff1602179055506119ae6040805190810160405280600881526020017f57696e6e65723a20000000000000000000000000000000000000000000000000815250600960009054906101000a900473ffffffffffffffffffffffffffffffffffffffff16611de4565b5b5b838060010194505061157a565b600960009054906101000a900473ffffffffffffffffffffffffffffffffffffffff1673ffffffffffffffffffffffffffffffffffffffff166108fc6006549081150290604051600060405180830381858888f19350505050158015611a27573d6000803e3d6000fd5b50611a896040805190810160405280600881526020017f57696e6e65723a20000000000000000000000000000000000000000000000000815250600960009054906101000a900473ffffffffffffffffffffffffffffffffffffffff16611de4565b60018060006101000a81548160ff021916908315150217905550611aab61142f565b5050505050565b600080600090505b8251811015611b24578373ffffffffffffffffffffffffffffffffffffffff168382815181101515611ae857fe5b9060200190602002015173ffffffffffffffffffffffffffffffffffffffff161415611b175760019150611b29565b8080600101915050611aba565b600091505b5092915050565b7f5a9b067eb1efcb7946bb79cb8214712f2057c2ed65dde70cba47f800e27a5b5e8282600001518360200151846040015185606001510360405180806020018060200185151515158152602001848152602001838103835287818151815260200191508051906020019080838360005b83811015611bbb578082015181840152602081019050611ba0565b50505050905090810190601f168015611be85780820380516001836020036101000a031916815260200191505b50838103825286818151815260200191508051906020019080838360005b83811015611c21578082015181840152602081019050611c06565b50505050905090810190601f168015611c4e5780820380516001836020036101000a031916815260200191505b50965050505050505060405180910390a15050565b6000816040518082805190602001908083835b602083101515611c9b5780518252602082019150602081019050602083039250611c76565b6001836020036101000a038019825116818451168082178552505050505050905001915050604051809103902060001916836040518082805190602001908083835b602083101515611d025780518252602082019150602081019050602083039250611cdd565b6001836020036101000a03801982511681845116808217855250505050505090500191505060405180910390206000191614905092915050565b7f3b53f2745f01e9cc7d8317d92cca0b2e25a1e0f710c5b65c2da4002d794e399f82826040518080602001838152602001828103825284818151815260200191508051906020019080838360005b83811015611da5578082015181840152602081019050611d8a565b50505050905090810190601f168015611dd25780820380516001836020036101000a031916815260200191505b50935050505060405180910390a15050565b7f62ddffe5b5108385f7a590f100e1ee414ad9551a31f089e64e82998440785e1e828260405180806020018373ffffffffffffffffffffffffffffffffffffffff1673ffffffffffffffffffffffffffffffffffffffff168152602001828103825284818151815260200191508051906020019080838360005b83811015611e79578082015181840152602081019050611e5e565b50505050905090810190601f168015611ea65780820380516001836020036101000a031916815260200191505b50935050505060405180910390a15050565b828054600181600116156101000203166002900490600052602060002090601f016020900481019282601f10611ef957805160ff1916838001178555611f27565b82800160010185558215611f27579182015b82811115611f26578251825591602001919060010190611f0b565b5b509050611f349190611fb8565b5090565b828054600181600116156101000203166002900490600052602060002090601f016020900481019282601f10611f7957805160ff1916838001178555611fa7565b82800160010185558215611fa7579182015b82811115611fa6578251825591602001919060010190611f8b565b5b509050611fb49190611fb8565b5090565b611fda91905b80821115611fd6576000816000905550600101611fbe565b5090565b905600a165627a7a7230582075c5ca932157e041f2f522dbb75b66a4c260f0bba65832d3bc84559bfd3a11b10029",
  "source": "pragma solidity ^0.4.0;\n\ncontract Contest {\n    \n    string title;   // \n    bool isFinished;    // \n    string desc;    // \n    address sponsor;    // \n    uint ddl;       // \n    uint cost;      // \n    uint bonus;     // \n    string content;     // \n    string answer;      // \n    address winner;     // \n\n    uint private Sponsorship = 100;  // \n\n    struct Submit{\n        string content;\n        bool isSubmitted;\n        uint begin;\n        uint end;\n    }\n    \n    enum Stages {\n        ContestRunning,\n        ContestRevealing,\n        ContestFinished\n    }\n    \n    mapping(address => Submit) public submisstions; // \n    address[] participants;\n    Stages public stage = Stages.ContestRunning;\n    \n    // \n    constructor(string mTitle, string mDesc, uint mDDL, uint mCost, uint mBonus, string mContent, string mAnswer) public payable {\n        require(msg.value >= Sponsorship + mBonus); //  Sponsorshipwei, bonus\n        require(mDDL > 0);  // 1\n        title = mTitle;\n        isFinished = false;\n        desc = mDesc;\n        sponsor = msg.sender;\n        ddl = now + mDDL * 1 minutes;\n        cost = mCost;\n        bonus = mBonus;\n        content = mContent;\n        answer = mAnswer;\n        winner = msg.sender;\n    }\n    \n    // \n    function partcipate() public payable timedTransitions OnlyAtStage(Stages.ContestRunning){\n        require(msg.value >= cost);     // \n        submisstions[msg.sender] = Submit(\"\", false, now, 0);\n        participants.push(msg.sender);\n    }\n    \n    // \n    function submit(string _content) public onlyAllowedParticipants timedTransitions OnlyAtStage(Stages.ContestRunning){\n        require(now <= ddl);    // ddl\n        require(!submisstions[msg.sender].isSubmitted);     // \n        submisstions[msg.sender].content = _content;\n        submisstions[msg.sender].isSubmitted = true;\n        submisstions[msg.sender].end = now;\n    }\n    \n    // \n    function getContestBaseInfo() public timedTransitions returns(string, bool, string, address, uint, uint, uint){\n        return (title, isFinished, desc, sponsor, ddl, cost, bonus);\n    }\n    \n    //  ()\n    function getContestContent() public onlyAllowedParticipants timedTransitions returns(string){\n        return content;\n    }\n    \n    // , ddl\n    function checkWinner() internal timedTransitions OnlyAtStage(Stages.ContestRevealing) transitionNext{\n        require(!isFinished);   // \n        uint minConsume = 1 << 20;\n        for(uint i = 0; i < participants.length; i++){\n            Submit storage s = submisstions[participants[i]];\n            log(\"Submit: \", s);\n            // \n            if(s.isSubmitted && compareStringsbyBytes(s.content, answer)){\n                uint last = s.end - s.begin;\n                log(\"last: \", last);\n                // \n                if(last < minConsume) {\n                    minConsume = last;\n                    winner = participants[i];\n                    log(\"Winner: \", winner);\n                }\n            }\n        }\n        // \n        winner.transfer(bonus);\n        log(\"Winner: \", winner);\n        isFinished = true;\n    }\n    \n    // , sponser\n    function getContestAllInfo() public timedTransitions onlyAllowedSponsorOrContestEnd returns(string, bool, string, address, uint, uint, uint, string, string, address) {\n        return (title, isFinished, desc, sponsor, ddl, cost, bonus, content, answer, winner);\n    }\n\n    // \n    function isParticipant(address user, address[] users) private pure returns (bool){\n        for(uint i = 0; i < users.length; i++){\n            if(users[i] == user) {\n                return true;\n            }\n        }\n        return false;\n    }\n    \n    \n    // modifier \n    modifier onlyAllowedParticipants{\n        require(isParticipant(msg.sender, participants));\n        _;\n    }\n    \n    // \n    modifier onlyAllowedSponsorOrContestEnd{\n        require(msg.sender==sponsor || now > ddl);\n        _;\n    }\n    \n    // \n    modifier OnlyAtStage(Stages _stage){\n        require(stage == _stage);\n        _;\n    }\n    \n    // \n    modifier transitionNext(){\n        _;\n        nextStage();\n    }\n\n    \n    // \n    modifier timedTransitions() {\n        if(stage == Stages.ContestRunning && now >= ddl){\n            // ddlcheckWinner()\n            nextStage();\n            checkWinner();\n        }\n        if(stage == Stages.ContestRevealing && isFinished)\n            nextStage();\n        _;\n    }\n\n    // \n    function compareStringsbyBytes(string s1, string s2) internal pure returns(bool){\n        return keccak256(bytes(s1)) == keccak256(bytes(s2));\n    }\n    \n    // Logdebug\n    event Log(string, string, bool, uint);\n    function log(string k, Submit s) internal {\n        emit Log(k, s.content, s.isSubmitted, s.end-s.begin);\n    }\n    \n    event LogInt(string, uint);\n    function log(string k, uint s) internal {\n        emit LogInt(k, s);\n    }\n    \n    event LogAddress(string, address);\n    function log(string k, address s) internal {\n        emit LogAddress(k, s);\n    }\n    \n    // \n    function nextStage() internal{\n        stage = Stages(uint(stage) + 1);\n    }\n    \n}\n",
  "sourcePath": "/Users/carolsum/Desktop/dapp/contracts/Contest.sol",
  "compiler": {
    "name": "solc",
    "version": "0.4.24+commit.e67f0147.Emscripten.clang"
  },
  "schemaVersion": "2.0.1",
  "updatedAt": "2018-12-25T14:04:35.472Z"
}