{
  "contractName": "Contest",
  "abi": [
    {
      "constant": true,
      "inputs": [],
      "name": "stage",
      "outputs": [
        {
          "name": "",
          "type": "uint8"
        }
      ],
      "payable": false,
      "stateMutability": "view",
      "type": "function"
    },
    {
      "constant": true,
      "inputs": [
        {
          "name": "",
          "type": "address"
        }
      ],
      "name": "submisstions",
      "outputs": [
        {
          "name": "content",
          "type": "string"
        },
        {
          "name": "isSubmitted",
          "type": "bool"
        },
        {
          "name": "begin",
          "type": "uint256"
        },
        {
          "name": "end",
          "type": "uint256"
        }
      ],
      "payable": false,
      "stateMutability": "view",
      "type": "function"
    },
    {
      "inputs": [
        {
          "name": "mTitle",
          "type": "string"
        },
        {
          "name": "mDesc",
          "type": "string"
        },
        {
          "name": "mDDL",
          "type": "uint256"
        },
        {
          "name": "mCost",
          "type": "uint256"
        },
        {
          "name": "mBonus",
          "type": "uint256"
        },
        {
          "name": "mContent",
          "type": "string"
        },
        {
          "name": "mAnswer",
          "type": "string"
        }
      ],
      "payable": true,
      "stateMutability": "payable",
      "type": "constructor"
    },
    {
      "anonymous": false,
      "inputs": [
        {
          "indexed": false,
          "name": "",
          "type": "string"
        },
        {
          "indexed": false,
          "name": "",
          "type": "string"
        },
        {
          "indexed": false,
          "name": "",
          "type": "bool"
        },
        {
          "indexed": false,
          "name": "",
          "type": "uint256"
        }
      ],
      "name": "Log",
      "type": "event"
    },
    {
      "anonymous": false,
      "inputs": [
        {
          "indexed": false,
          "name": "",
          "type": "string"
        },
        {
          "indexed": false,
          "name": "",
          "type": "uint256"
        }
      ],
      "name": "LogInt",
      "type": "event"
    },
    {
      "anonymous": false,
      "inputs": [
        {
          "indexed": false,
          "name": "",
          "type": "string"
        },
        {
          "indexed": false,
          "name": "",
          "type": "address"
        }
      ],
      "name": "LogAddress",
      "type": "event"
    },
    {
      "constant": false,
      "inputs": [],
      "name": "partcipate",
      "outputs": [],
      "payable": true,
      "stateMutability": "payable",
      "type": "function"
    },
    {
      "constant": false,
      "inputs": [
        {
          "name": "_content",
          "type": "string"
        }
      ],
      "name": "submit",
      "outputs": [],
      "payable": false,
      "stateMutability": "nonpayable",
      "type": "function"
    },
    {
      "constant": false,
      "inputs": [],
      "name": "getContestBaseInfo",
      "outputs": [
        {
          "name": "",
          "type": "string"
        },
        {
          "name": "",
          "type": "bool"
        },
        {
          "name": "",
          "type": "string"
        },
        {
          "name": "",
          "type": "address"
        },
        {
          "name": "",
          "type": "uint256"
        },
        {
          "name": "",
          "type": "uint256"
        },
        {
          "name": "",
          "type": "uint256"
        }
      ],
      "payable": false,
      "stateMutability": "nonpayable",
      "type": "function"
    },
    {
      "constant": false,
      "inputs": [],
      "name": "getContestContent",
      "outputs": [
        {
          "name": "",
          "type": "string"
        }
      ],
      "payable": false,
      "stateMutability": "nonpayable",
      "type": "function"
    },
    {
      "constant": false,
      "inputs": [],
      "name": "getContestAllInfo",
      "outputs": [
        {
          "name": "",
          "type": "string"
        },
        {
          "name": "",
          "type": "bool"
        },
        {
          "name": "",
          "type": "string"
        },
        {
          "name": "",
          "type": "address"
        },
        {
          "name": "",
          "type": "uint256"
        },
        {
          "name": "",
          "type": "uint256"
        },
        {
          "name": "",
          "type": "uint256"
        },
        {
          "name": "",
          "type": "string"
        },
        {
          "name": "",
          "type": "string"
        },
        {
          "name": "",
          "type": "address"
        }
      ],
      "payable": false,
      "stateMutability": "nonpayable",
      "type": "function"
    },
    {
      "constant": true,
      "inputs": [],
      "name": "getUserSubmisstions",
      "outputs": [
        {
          "name": "",
          "type": "string"
        },
        {
          "name": "",
          "type": "bool"
        }
      ],
      "payable": false,
      "stateMutability": "view",
      "type": "function"
    },
    {
      "constant": true,
      "inputs": [],
      "name": "isParticipant",
      "outputs": [
        {
          "name": "",
          "type": "bool"
        }
      ],
      "payable": false,
      "stateMutability": "view",
      "type": "function"
    }
  ],
  "bytecode": "0x60806040526064600a556000600d60006101000a81548160ff021916908360028111156200002957fe5b0217905550604051620025ba380380620025ba8339810180604052810190808051820192919060200180518201929190602001805190602001909291908051906020019092919080519060200190929190805182019291906020018051820192919050505082600a54013410151515620000a257600080fd5b600085111515620000b257600080fd5b8660009080519060200190620000ca929190620001d5565b506000600160006101000a81548160ff0219169083151502179055508560029080519060200190620000fe929190620001d5565b5033600360006101000a81548173ffffffffffffffffffffffffffffffffffffffff021916908373ffffffffffffffffffffffffffffffffffffffff16021790555084600481905550836005819055508260068190555081600790805190602001906200016d929190620001d5565b50806008908051906020019062000186929190620001d5565b5033600960006101000a81548173ffffffffffffffffffffffffffffffffffffffff021916908373ffffffffffffffffffffffffffffffffffffffff1602179055505050505050505062000284565b828054600181600116156101000203166002900490600052602060002090601f016020900481019282601f106200021857805160ff191683800117855562000249565b8280016001018555821562000249579182015b82811115620002485782518255916020019190600101906200022b565b5b5090506200025891906200025c565b5090565b6200028191905b808211156200027d57600081600090555060010162000263565b5090565b90565b61232680620002946000396000f300608060405260043610610099576000357c0100000000000000000000000000000000000000000000000000000000900463ffffffff1680632738c25a1461009e578063495e03a3146101ed5780637954ec7b14610447578063b70f155714610476578063c040e6b814610511578063d99a8dc31461054a578063f1ba2d54146105b3578063f2a3041614610643578063f3b51b0d14610718575b600080fd5b3480156100aa57600080fd5b506100b3610722565b604051808060200188151515158152602001806020018773ffffffffffffffffffffffffffffffffffffffff1673ffffffffffffffffffffffffffffffffffffffff16815260200186815260200185815260200184815260200183810383528a818151815260200191508051906020019080838360005b8381101561014557808201518184015260208101905061012a565b50505050905090810190601f1680156101725780820380516001836020036101000a031916815260200191505b50838103825288818151815260200191508051906020019080838360005b838110156101ab578082015181840152602081019050610190565b50505050905090810190601f1680156101d85780820380516001836020036101000a031916815260200191505b50995050505050505050505060405180910390f35b3480156101f957600080fd5b50610202610959565b60405180806020018b151515158152602001806020018a73ffffffffffffffffffffffffffffffffffffffff1673ffffffffffffffffffffffffffffffffffffffff16815260200189815260200188815260200187815260200180602001806020018673ffffffffffffffffffffffffffffffffffffffff1673ffffffffffffffffffffffffffffffffffffffff16815260200185810385528f818151815260200191508051906020019080838360005b838110156102ce5780820151818401526020810190506102b3565b50505050905090810190601f1680156102fb5780820380516001836020036101000a031916815260200191505b5085810384528d818151815260200191508051906020019080838360005b83811015610334578082015181840152602081019050610319565b50505050905090810190601f1680156103615780820380516001836020036101000a031916815260200191505b50858103835288818151815260200191508051906020019080838360005b8381101561039a57808201518184015260208101905061037f565b50505050905090810190601f1680156103c75780820380516001836020036101000a031916815260200191505b50858103825287818151815260200191508051906020019080838360005b838110156104005780820151818401526020810190506103e5565b50505050905090810190601f16801561042d5780820380516001836020036101000a031916815260200191505b509e50505050505050505050505050505060405180910390f35b34801561045357600080fd5b5061045c610d64565b604051808215151515815260200191505060405180910390f35b34801561048257600080fd5b5061048b610e05565b604051808060200183151515158152602001828103825284818151815260200191508051906020019080838360005b838110156104d55780820151818401526020810190506104ba565b50505050905090810190601f1680156105025780820380516001836020036101000a031916815260200191505b50935050505060405180910390f35b34801561051d57600080fd5b50610526610fa1565b6040518082600281111561053657fe5b60ff16815260200191505060405180910390f35b34801561055657600080fd5b506105b1600480360381019080803590602001908201803590602001908080601f0160208091040260200160405190810160405280939291908181526020018383808284378201915050505050509192919290505050610fb4565b005b3480156105bf57600080fd5b506105c861128a565b6040518080602001828103825283818151815260200191508051906020019080838360005b838110156106085780820151818401526020810190506105ed565b50505050905090810190601f1680156106355780820380516001836020036101000a031916815260200191505b509250505060405180910390f35b34801561064f57600080fd5b50610684600480360381019080803573ffffffffffffffffffffffffffffffffffffffff169060200190929190505050611463565b604051808060200185151515158152602001848152602001838152602001828103825286818151815260200191508051906020019080838360005b838110156106da5780820151818401526020810190506106bf565b50505050905090810190601f1680156107075780820380516001836020036101000a031916815260200191505b509550505050505060405180910390f35b610720611538565b005b6060600060606000806000806000600281111561073b57fe5b600d60009054906101000a900460ff16600281111561075657fe5b14801561076557506004544210155b1561077b5761077261174c565b61077a611799565b5b6001600281111561078857fe5b600d60009054906101000a900460ff1660028111156107a357fe5b1480156107bc5750600160009054906101000a900460ff165b156107ca576107c961174c565b5b6000600160009054906101000a900460ff166002600360009054906101000a900473ffffffffffffffffffffffffffffffffffffffff16600454600554600654868054600181600116156101000203166002900480601f01602080910402602001604051908101604052809291908181526020018280546001816001161561010002031660029004801561089f5780601f106108745761010080835404028352916020019161089f565b820191906000526020600020905b81548152906001019060200180831161088257829003601f168201915b50505050509650848054600181600116156101000203166002900480601f01602080910402602001604051908101604052809291908181526020018280546001816001161561010002031660029004801561093b5780601f106109105761010080835404028352916020019161093b565b820191906000526020600020905b81548152906001019060200180831161091e57829003601f168201915b50505050509450965096509650965096509650965090919293949596565b606060006060600080600080606080600080600281111561097657fe5b600d60009054906101000a900460ff16600281111561099157fe5b1480156109a057506004544210155b156109b6576109ad61174c565b6109b5611799565b5b600160028111156109c357fe5b600d60009054906101000a900460ff1660028111156109de57fe5b1480156109f75750600160009054906101000a900460ff165b15610a0557610a0461174c565b5b600360009054906101000a900473ffffffffffffffffffffffffffffffffffffffff1673ffffffffffffffffffffffffffffffffffffffff163373ffffffffffffffffffffffffffffffffffffffff161480610a62575060045442115b1515610a6d57600080fd5b6000600160009054906101000a900460ff166002600360009054906101000a900473ffffffffffffffffffffffffffffffffffffffff1660045460055460065460076008600960009054906101000a900473ffffffffffffffffffffffffffffffffffffffff16898054600181600116156101000203166002900480601f016020809104026020016040519081016040528092919081815260200182805460018160011615610100020316600290048015610b695780601f10610b3e57610100808354040283529160200191610b69565b820191906000526020600020905b815481529060010190602001808311610b4c57829003601f168201915b50505050509950878054600181600116156101000203166002900480601f016020809104026020016040519081016040528092919081815260200182805460018160011615610100020316600290048015610c055780601f10610bda57610100808354040283529160200191610c05565b820191906000526020600020905b815481529060010190602001808311610be857829003601f168201915b50505050509750828054600181600116156101000203166002900480601f016020809104026020016040519081016040528092919081815260200182805460018160011615610100020316600290048015610ca15780601f10610c7657610100808354040283529160200191610ca1565b820191906000526020600020905b815481529060010190602001808311610c8457829003601f168201915b50505050509250818054600181600116156101000203166002900480601f016020809104026020016040519081016040528092919081815260200182805460018160011615610100020316600290048015610d3d5780601f10610d1257610100808354040283529160200191610d3d565b820191906000526020600020905b815481529060010190602001808311610d2057829003601f168201915b50505050509150995099509950995099509950995099509950995090919293949596979899565b600080600090505b600c80549050811015610dfc57600c81815481101515610d8857fe5b9060005260206000200160009054906101000a900473ffffffffffffffffffffffffffffffffffffffff1673ffffffffffffffffffffffffffffffffffffffff163373ffffffffffffffffffffffffffffffffffffffff161415610def5760019150610e01565b8080600101915050610d6c565b600091505b5090565b6060600080610e9a33600c805480602002602001604051908101604052809291908181526020018280548015610e9057602002820191906000526020600020905b8160009054906101000a900473ffffffffffffffffffffffffffffffffffffffff1673ffffffffffffffffffffffffffffffffffffffff1681526020019060010190808311610e46575b5050505050611dcf565b1515610ea557600080fd5b600b60003373ffffffffffffffffffffffffffffffffffffffff1673ffffffffffffffffffffffffffffffffffffffff1681526020019081526020016000209050806000018160010160009054906101000a900460ff16818054600181600116156101000203166002900480601f016020809104026020016040519081016040528092919081815260200182805460018160011615610100020316600290048015610f915780601f10610f6657610100808354040283529160200191610f91565b820191906000526020600020905b815481529060010190602001808311610f7457829003601f168201915b5050505050915092509250509091565b600d60009054906101000a900460ff1681565b61104433600c80548060200260200160405190810160405280929190818152602001828054801561103a57602002820191906000526020600020905b8160009054906101000a900473ffffffffffffffffffffffffffffffffffffffff1673ffffffffffffffffffffffffffffffffffffffff1681526020019060010190808311610ff0575b5050505050611dcf565b151561104f57600080fd5b6000600281111561105c57fe5b600d60009054906101000a900460ff16600281111561107757fe5b14801561108657506004544210155b1561109c5761109361174c565b61109b611799565b5b600160028111156110a957fe5b600d60009054906101000a900460ff1660028111156110c457fe5b1480156110dd5750600160009054906101000a900460ff165b156110eb576110ea61174c565b5b60008060028111156110f957fe5b600d60009054906101000a900460ff16600281111561111457fe5b14151561112057600080fd5b600454421115151561113157600080fd5b600b60003373ffffffffffffffffffffffffffffffffffffffff1673ffffffffffffffffffffffffffffffffffffffff16815260200190815260200160002060010160009054906101000a900460ff1615151561118d57600080fd5b81600b60003373ffffffffffffffffffffffffffffffffffffffff1673ffffffffffffffffffffffffffffffffffffffff16815260200190815260200160002060000190805190602001906111e39291906121d5565b506001600b60003373ffffffffffffffffffffffffffffffffffffffff1673ffffffffffffffffffffffffffffffffffffffff16815260200190815260200160002060010160006101000a81548160ff02191690831515021790555042600b60003373ffffffffffffffffffffffffffffffffffffffff1673ffffffffffffffffffffffffffffffffffffffff168152602001908152602001600020600301819055505050565b606061131c33600c80548060200260200160405190810160405280929190818152602001828054801561131257602002820191906000526020600020905b8160009054906101000a900473ffffffffffffffffffffffffffffffffffffffff1673ffffffffffffffffffffffffffffffffffffffff16815260200190600101908083116112c8575b5050505050611dcf565b151561132757600080fd5b6000600281111561133457fe5b600d60009054906101000a900460ff16600281111561134f57fe5b14801561135e57506004544210155b156113745761136b61174c565b611373611799565b5b6001600281111561138157fe5b600d60009054906101000a900460ff16600281111561139c57fe5b1480156113b55750600160009054906101000a900460ff165b156113c3576113c261174c565b5b60078054600181600116156101000203166002900480601f0160208091040260200160405190810160405280929190818152602001828054600181600116156101000203166002900480156114595780601f1061142e57610100808354040283529160200191611459565b820191906000526020600020905b81548152906001019060200180831161143c57829003601f168201915b5050505050905090565b600b602052806000526040600020600091509050806000018054600181600116156101000203166002900480601f01602080910402602001604051908101604052809291908181526020018280546001816001161561010002031660029004801561150f5780601f106114e45761010080835404028352916020019161150f565b820191906000526020600020905b8154815290600101906020018083116114f257829003601f168201915b5050505050908060010160009054906101000a900460ff16908060020154908060030154905084565b6000600281111561154557fe5b600d60009054906101000a900460ff16600281111561156057fe5b14801561156f57506004544210155b156115855761157c61174c565b611584611799565b5b6001600281111561159257fe5b600d60009054906101000a900460ff1660028111156115ad57fe5b1480156115c65750600160009054906101000a900460ff165b156115d4576115d361174c565b5b60008060028111156115e257fe5b600d60009054906101000a900460ff1660028111156115fd57fe5b14151561160957600080fd5b600554341015151561161a57600080fd5b608060405190810160405280602060405190810160405280600081525081526020016000151581526020014281526020016000815250600b60003373ffffffffffffffffffffffffffffffffffffffff1673ffffffffffffffffffffffffffffffffffffffff16815260200190815260200160002060008201518160000190805190602001906116ab929190612255565b5060208201518160010160006101000a81548160ff0219169083151502179055506040820151816002015560608201518160030155905050600c3390806001815401808255809150509060018203906000526020600020016000909192909190916101000a81548173ffffffffffffffffffffffffffffffffffffffff021916908373ffffffffffffffffffffffffffffffffffffffff1602179055505050565b6001600d60009054906101000a900460ff16600281111561176957fe5b01600281111561177557fe5b600d60006101000a81548160ff0219169083600281111561179257fe5b0217905550565b600080600080600060028111156117ac57fe5b600d60009054906101000a900460ff1660028111156117c757fe5b1480156117d657506004544210155b156117ec576117e361174c565b6117eb611799565b5b600160028111156117f957fe5b600d60009054906101000a900460ff16600281111561181457fe5b14801561182d5750600160009054906101000a900460ff165b1561183b5761183a61174c565b5b600180600281111561184957fe5b600d60009054906101000a900460ff16600281111561186457fe5b14151561187057600080fd5b600160009054906101000a900460ff1615151561188c57600080fd5b621000009450600093505b600c80549050841015611cda57600b6000600c868154811015156118b757fe5b9060005260206000200160009054906101000a900473ffffffffffffffffffffffffffffffffffffffff1673ffffffffffffffffffffffffffffffffffffffff1673ffffffffffffffffffffffffffffffffffffffff1681526020019081526020016000209250611a3a6040805190810160405280600881526020017f5375626d69743a200000000000000000000000000000000000000000000000008152508460806040519081016040529081600082018054600181600116156101000203166002900480601f0160208091040260200160405190810160405280929190818152602001828054600181600116156101000203166002900480156119fd5780601f106119d2576101008083540402835291602001916119fd565b820191906000526020600020905b8154815290600101906020018083116119e057829003601f168201915b505050505081526020016001820160009054906101000a900460ff1615151515815260200160028201548152602001600382015481525050611e4d565b8260010160009054906101000a900460ff168015611b945750611b93836000018054600181600116156101000203166002900480601f016020809104026020016040519081016040528092919081815260200182805460018160011615610100020316600290048015611aee5780601f10611ac357610100808354040283529160200191611aee565b820191906000526020600020905b815481529060010190602001808311611ad157829003601f168201915b505050505060088054600181600116156101000203166002900480601f016020809104026020016040519081016040528092919081815260200182805460018160011615610100020316600290048015611b895780601f10611b5e57610100808354040283529160200191611b89565b820191906000526020600020905b815481529060010190602001808311611b6c57829003601f168201915b5050505050611f80565b5b15611ccd5782600201548360030154039150611be56040805190810160405280600681526020017f6c6173743a20000000000000000000000000000000000000000000000000000081525083612059565b84821015611ccc57819450600c84815481101515611bff57fe5b9060005260206000200160009054906101000a900473ffffffffffffffffffffffffffffffffffffffff16600960006101000a81548173ffffffffffffffffffffffffffffffffffffffff021916908373ffffffffffffffffffffffffffffffffffffffff160217905550611ccb6040805190810160405280600881526020017f57696e6e65723a20000000000000000000000000000000000000000000000000815250600960009054906101000a900473ffffffffffffffffffffffffffffffffffffffff16612101565b5b5b8380600101945050611897565b600960009054906101000a900473ffffffffffffffffffffffffffffffffffffffff1673ffffffffffffffffffffffffffffffffffffffff166108fc6006549081150290604051600060405180830381858888f19350505050158015611d44573d6000803e3d6000fd5b50611da66040805190810160405280600881526020017f57696e6e65723a20000000000000000000000000000000000000000000000000815250600960009054906101000a900473ffffffffffffffffffffffffffffffffffffffff16612101565b60018060006101000a81548160ff021916908315150217905550611dc861174c565b5050505050565b600080600090505b8251811015611e41578373ffffffffffffffffffffffffffffffffffffffff168382815181101515611e0557fe5b9060200190602002015173ffffffffffffffffffffffffffffffffffffffff161415611e345760019150611e46565b8080600101915050611dd7565b600091505b5092915050565b7f5a9b067eb1efcb7946bb79cb8214712f2057c2ed65dde70cba47f800e27a5b5e8282600001518360200151846040015185606001510360405180806020018060200185151515158152602001848152602001838103835287818151815260200191508051906020019080838360005b83811015611ed8578082015181840152602081019050611ebd565b50505050905090810190601f168015611f055780820380516001836020036101000a031916815260200191505b50838103825286818151815260200191508051906020019080838360005b83811015611f3e578082015181840152602081019050611f23565b50505050905090810190601f168015611f6b5780820380516001836020036101000a031916815260200191505b50965050505050505060405180910390a15050565b6000816040518082805190602001908083835b602083101515611fb85780518252602082019150602081019050602083039250611f93565b6001836020036101000a038019825116818451168082178552505050505050905001915050604051809103902060001916836040518082805190602001908083835b60208310151561201f5780518252602082019150602081019050602083039250611ffa565b6001836020036101000a03801982511681845116808217855250505050505090500191505060405180910390206000191614905092915050565b7f3b53f2745f01e9cc7d8317d92cca0b2e25a1e0f710c5b65c2da4002d794e399f82826040518080602001838152602001828103825284818151815260200191508051906020019080838360005b838110156120c25780820151818401526020810190506120a7565b50505050905090810190601f1680156120ef5780820380516001836020036101000a031916815260200191505b50935050505060405180910390a15050565b7f62ddffe5b5108385f7a590f100e1ee414ad9551a31f089e64e82998440785e1e828260405180806020018373ffffffffffffffffffffffffffffffffffffffff1673ffffffffffffffffffffffffffffffffffffffff168152602001828103825284818151815260200191508051906020019080838360005b8381101561219657808201518184015260208101905061217b565b50505050905090810190601f1680156121c35780820380516001836020036101000a031916815260200191505b50935050505060405180910390a15050565b828054600181600116156101000203166002900490600052602060002090601f016020900481019282601f1061221657805160ff1916838001178555612244565b82800160010185558215612244579182015b82811115612243578251825591602001919060010190612228565b5b50905061225191906122d5565b5090565b828054600181600116156101000203166002900490600052602060002090601f016020900481019282601f1061229657805160ff19168380011785556122c4565b828001600101855582156122c4579182015b828111156122c35782518255916020019190600101906122a8565b5b5090506122d191906122d5565b5090565b6122f791905b808211156122f35760008160009055506001016122db565b5090565b905600a165627a7a72305820775459e4921287b50d12c67d8d1e10a408a8b2c23fbd07a20ec4b3d9c8156f0d0029",
  "source": "pragma solidity ^0.4.0;\n\ncontract Contest {\n    \n    string title;   // \n    bool isFinished;    // \n    string desc;    // \n    address sponsor;    // \n    uint ddl;       // \n    uint cost;      // \n    uint bonus;     // \n    string content;     // \n    string answer;      // \n    address winner;     // \n\n    uint private Sponsorship = 100;  // \n\n    struct Submit{\n        string content;\n        bool isSubmitted;\n        uint begin;\n        uint end;\n    }\n    \n    enum Stages {\n        ContestRunning,\n        ContestRevealing,\n        ContestFinished\n    }\n    \n    mapping(address => Submit) public submisstions; // \n    address[] participants;\n    Stages public stage = Stages.ContestRunning;\n    \n    // \n    constructor(string mTitle, string mDesc, uint mDDL, uint mCost, uint mBonus, string mContent, string mAnswer) public payable {\n        require(msg.value >= Sponsorship + mBonus); //  Sponsorshipwei, bonus\n        require(mDDL > 0);  // 1\n        title = mTitle;\n        isFinished = false;\n        desc = mDesc;\n        sponsor = msg.sender;\n        ddl = mDDL;\n        cost = mCost;\n        bonus = mBonus;\n        content = mContent;\n        answer = mAnswer;\n        winner = msg.sender;\n    }\n    \n    // \n    function partcipate() public payable timedTransitions OnlyAtStage(Stages.ContestRunning){\n        require(msg.value >= cost);     // \n        submisstions[msg.sender] = Submit(\"\", false, now, 0);\n        participants.push(msg.sender);\n    }\n    \n    // \n    function submit(string _content) public onlyAllowedParticipants timedTransitions OnlyAtStage(Stages.ContestRunning){\n        require(now <= ddl);    // ddl\n        require(!submisstions[msg.sender].isSubmitted);     // \n        submisstions[msg.sender].content = _content;\n        submisstions[msg.sender].isSubmitted = true;\n        submisstions[msg.sender].end = now;\n    }\n    \n    // \n    function getContestBaseInfo() public timedTransitions returns(string, bool, string, address, uint, uint, uint){\n        return (title, isFinished, desc, sponsor, ddl, cost, bonus);\n    }\n    \n    //  ()\n    function getContestContent() public onlyAllowedParticipants timedTransitions returns(string){\n        return content;\n    }\n    \n    // , ddl\n    function checkWinner() internal timedTransitions OnlyAtStage(Stages.ContestRevealing) transitionNext{\n        require(!isFinished);   // \n        uint minConsume = 1 << 20;\n        for(uint i = 0; i < participants.length; i++){\n            Submit storage s = submisstions[participants[i]];\n            log(\"Submit: \", s);\n            // \n            if(s.isSubmitted && compareStringsbyBytes(s.content, answer)){\n                uint last = s.end - s.begin;\n                log(\"last: \", last);\n                // \n                if(last < minConsume) {\n                    minConsume = last;\n                    winner = participants[i];\n                    log(\"Winner: \", winner);\n                }\n            }\n        }\n        // \n        winner.transfer(bonus);\n        log(\"Winner: \", winner);\n        isFinished = true;\n    }\n    \n    // , sponser\n    function getContestAllInfo() public timedTransitions onlyAllowedSponsorOrContestEnd returns(string, bool, string, address, uint, uint, uint, string, string, address) {\n        return (title, isFinished, desc, sponsor, ddl, cost, bonus, content, answer, winner);\n    }\n\n    // \n    function getUserSubmisstions() public onlyAllowedParticipants view returns(string, bool){\n        // submisstions\n        Submit storage temp = submisstions[msg.sender];\n        return (temp.content, temp.isSubmitted);\n    }\n\n    // \n    function isParticipant(address user, address[] users) private pure returns (bool){\n        for(uint i = 0; i < users.length; i++){\n            if(users[i] == user) {\n                return true;\n            }\n        }\n        return false;\n    }\n\n    // \n    function isParticipant() public view returns (bool){\n        for(uint i = 0; i < participants.length; i++){\n            if(msg.sender == participants[i]) {\n                return true;\n            }\n        }\n        return false;\n    }\n    \n    \n    // modifier \n    modifier onlyAllowedParticipants{\n        require(isParticipant(msg.sender, participants));\n        _;\n    }\n    \n    // \n    modifier onlyAllowedSponsorOrContestEnd{\n        require(msg.sender==sponsor || now > ddl);\n        _;\n    }\n    \n    // \n    modifier OnlyAtStage(Stages _stage){\n        require(stage == _stage);\n        _;\n    }\n    \n    // \n    modifier transitionNext(){\n        _;\n        nextStage();\n    }\n\n    \n    // \n    modifier timedTransitions() {\n        if(stage == Stages.ContestRunning && now >= ddl){\n            // ddlcheckWinner()\n            nextStage();\n            checkWinner();\n        }\n        if(stage == Stages.ContestRevealing && isFinished)\n            nextStage();\n        _;\n    }\n\n    // \n    function compareStringsbyBytes(string s1, string s2) internal pure returns(bool){\n        return keccak256(bytes(s1)) == keccak256(bytes(s2));\n    }\n    \n    // Logdebug\n    event Log(string, string, bool, uint);\n    function log(string k, Submit s) internal {\n        emit Log(k, s.content, s.isSubmitted, s.end-s.begin);\n    }\n    \n    event LogInt(string, uint);\n    function log(string k, uint s) internal {\n        emit LogInt(k, s);\n    }\n    \n    event LogAddress(string, address);\n    function log(string k, address s) internal {\n        emit LogAddress(k, s);\n    }\n    \n    // \n    function nextStage() internal{\n        stage = Stages(uint(stage) + 1);\n    }\n    \n}\n",
  "sourcePath": "/Users/carolsum/Desktop/dapp/contracts/Contest.sol",
  "compiler": {
    "name": "solc",
    "version": "0.4.24+commit.e67f0147.Emscripten.clang"
  },
  "schemaVersion": "2.0.1",
  "updatedAt": "2018-12-27T12:33:36.156Z"
}