{
  "contractName": "Contest",
  "abi": [
    {
      "constant": true,
      "inputs": [],
      "name": "stage",
      "outputs": [
        {
          "name": "",
          "type": "uint8"
        }
      ],
      "payable": false,
      "stateMutability": "view",
      "type": "function"
    },
    {
      "constant": true,
      "inputs": [
        {
          "name": "",
          "type": "address"
        }
      ],
      "name": "submisstions",
      "outputs": [
        {
          "name": "content",
          "type": "string"
        },
        {
          "name": "isSubmitted",
          "type": "bool"
        },
        {
          "name": "begin",
          "type": "uint256"
        },
        {
          "name": "end",
          "type": "uint256"
        }
      ],
      "payable": false,
      "stateMutability": "view",
      "type": "function"
    },
    {
      "inputs": [
        {
          "name": "mTitle",
          "type": "string"
        },
        {
          "name": "mDesc",
          "type": "string"
        },
        {
          "name": "mDDL",
          "type": "uint256"
        },
        {
          "name": "mCost",
          "type": "uint256"
        },
        {
          "name": "mBonus",
          "type": "uint256"
        },
        {
          "name": "mContent",
          "type": "string"
        },
        {
          "name": "mAnswer",
          "type": "string"
        }
      ],
      "payable": true,
      "stateMutability": "payable",
      "type": "constructor"
    },
    {
      "anonymous": false,
      "inputs": [
        {
          "indexed": false,
          "name": "",
          "type": "string"
        },
        {
          "indexed": false,
          "name": "",
          "type": "string"
        },
        {
          "indexed": false,
          "name": "",
          "type": "bool"
        },
        {
          "indexed": false,
          "name": "",
          "type": "uint256"
        }
      ],
      "name": "Log",
      "type": "event"
    },
    {
      "anonymous": false,
      "inputs": [
        {
          "indexed": false,
          "name": "",
          "type": "string"
        },
        {
          "indexed": false,
          "name": "",
          "type": "uint256"
        }
      ],
      "name": "LogInt",
      "type": "event"
    },
    {
      "anonymous": false,
      "inputs": [
        {
          "indexed": false,
          "name": "",
          "type": "string"
        },
        {
          "indexed": false,
          "name": "",
          "type": "address"
        }
      ],
      "name": "LogAddress",
      "type": "event"
    },
    {
      "constant": false,
      "inputs": [],
      "name": "partcipate",
      "outputs": [],
      "payable": true,
      "stateMutability": "payable",
      "type": "function"
    },
    {
      "constant": false,
      "inputs": [
        {
          "name": "_content",
          "type": "string"
        }
      ],
      "name": "submit",
      "outputs": [],
      "payable": false,
      "stateMutability": "nonpayable",
      "type": "function"
    },
    {
      "constant": false,
      "inputs": [],
      "name": "getContestBaseInfo",
      "outputs": [
        {
          "name": "",
          "type": "string"
        },
        {
          "name": "",
          "type": "bool"
        },
        {
          "name": "",
          "type": "string"
        },
        {
          "name": "",
          "type": "address"
        },
        {
          "name": "",
          "type": "uint256"
        },
        {
          "name": "",
          "type": "uint256"
        },
        {
          "name": "",
          "type": "uint256"
        }
      ],
      "payable": false,
      "stateMutability": "nonpayable",
      "type": "function"
    },
    {
      "constant": false,
      "inputs": [],
      "name": "getContestContent",
      "outputs": [
        {
          "name": "",
          "type": "string"
        }
      ],
      "payable": false,
      "stateMutability": "nonpayable",
      "type": "function"
    },
    {
      "constant": false,
      "inputs": [],
      "name": "getContestAllInfo",
      "outputs": [
        {
          "name": "",
          "type": "string"
        },
        {
          "name": "",
          "type": "bool"
        },
        {
          "name": "",
          "type": "string"
        },
        {
          "name": "",
          "type": "address"
        },
        {
          "name": "",
          "type": "uint256"
        },
        {
          "name": "",
          "type": "uint256"
        },
        {
          "name": "",
          "type": "uint256"
        },
        {
          "name": "",
          "type": "string"
        },
        {
          "name": "",
          "type": "string"
        },
        {
          "name": "",
          "type": "address"
        }
      ],
      "payable": false,
      "stateMutability": "nonpayable",
      "type": "function"
    },
    {
      "constant": true,
      "inputs": [],
      "name": "isParticipant",
      "outputs": [
        {
          "name": "",
          "type": "bool"
        }
      ],
      "payable": false,
      "stateMutability": "view",
      "type": "function"
    }
  ],
  "bytecode": "0x60806040526064600a556000600d60006101000a81548160ff021916908360028111156200002957fe5b021790555060405162002378380380620023788339810180604052810190808051820192919060200180518201929190602001805190602001909291908051906020019092919080519060200190929190805182019291906020018051820192919050505082600a54013410151515620000a257600080fd5b600085111515620000b257600080fd5b8660009080519060200190620000ca929190620001d5565b506000600160006101000a81548160ff0219169083151502179055508560029080519060200190620000fe929190620001d5565b5033600360006101000a81548173ffffffffffffffffffffffffffffffffffffffff021916908373ffffffffffffffffffffffffffffffffffffffff16021790555084600481905550836005819055508260068190555081600790805190602001906200016d929190620001d5565b50806008908051906020019062000186929190620001d5565b5033600960006101000a81548173ffffffffffffffffffffffffffffffffffffffff021916908373ffffffffffffffffffffffffffffffffffffffff1602179055505050505050505062000284565b828054600181600116156101000203166002900490600052602060002090601f016020900481019282601f106200021857805160ff191683800117855562000249565b8280016001018555821562000249579182015b82811115620002485782518255916020019190600101906200022b565b5b5090506200025891906200025c565b5090565b6200028191905b808211156200027d57600081600090555060010162000263565b5090565b90565b6120e480620002946000396000f30060806040526004361061008e576000357c0100000000000000000000000000000000000000000000000000000000900463ffffffff1680632738c25a14610093578063495e03a3146101e25780637954ec7b1461043c578063c040e6b81461046b578063d99a8dc3146104a4578063f1ba2d541461050d578063f2a304161461059d578063f3b51b0d14610672575b600080fd5b34801561009f57600080fd5b506100a861067c565b604051808060200188151515158152602001806020018773ffffffffffffffffffffffffffffffffffffffff1673ffffffffffffffffffffffffffffffffffffffff16815260200186815260200185815260200184815260200183810383528a818151815260200191508051906020019080838360005b8381101561013a57808201518184015260208101905061011f565b50505050905090810190601f1680156101675780820380516001836020036101000a031916815260200191505b50838103825288818151815260200191508051906020019080838360005b838110156101a0578082015181840152602081019050610185565b50505050905090810190601f1680156101cd5780820380516001836020036101000a031916815260200191505b50995050505050505050505060405180910390f35b3480156101ee57600080fd5b506101f76108b3565b60405180806020018b151515158152602001806020018a73ffffffffffffffffffffffffffffffffffffffff1673ffffffffffffffffffffffffffffffffffffffff16815260200189815260200188815260200187815260200180602001806020018673ffffffffffffffffffffffffffffffffffffffff1673ffffffffffffffffffffffffffffffffffffffff16815260200185810385528f818151815260200191508051906020019080838360005b838110156102c35780820151818401526020810190506102a8565b50505050905090810190601f1680156102f05780820380516001836020036101000a031916815260200191505b5085810384528d818151815260200191508051906020019080838360005b8381101561032957808201518184015260208101905061030e565b50505050905090810190601f1680156103565780820380516001836020036101000a031916815260200191505b50858103835288818151815260200191508051906020019080838360005b8381101561038f578082015181840152602081019050610374565b50505050905090810190601f1680156103bc5780820380516001836020036101000a031916815260200191505b50858103825287818151815260200191508051906020019080838360005b838110156103f55780820151818401526020810190506103da565b50505050905090810190601f1680156104225780820380516001836020036101000a031916815260200191505b509e50505050505050505050505050505060405180910390f35b34801561044857600080fd5b50610451610cbe565b604051808215151515815260200191505060405180910390f35b34801561047757600080fd5b50610480610d5f565b6040518082600281111561049057fe5b60ff16815260200191505060405180910390f35b3480156104b057600080fd5b5061050b600480360381019080803590602001908201803590602001908080601f0160208091040260200160405190810160405280939291908181526020018383808284378201915050505050509192919290505050610d72565b005b34801561051957600080fd5b50610522611048565b6040518080602001828103825283818151815260200191508051906020019080838360005b83811015610562578082015181840152602081019050610547565b50505050905090810190601f16801561058f5780820380516001836020036101000a031916815260200191505b509250505060405180910390f35b3480156105a957600080fd5b506105de600480360381019080803573ffffffffffffffffffffffffffffffffffffffff169060200190929190505050611221565b604051808060200185151515158152602001848152602001838152602001828103825286818151815260200191508051906020019080838360005b83811015610634578082015181840152602081019050610619565b50505050905090810190601f1680156106615780820380516001836020036101000a031916815260200191505b509550505050505060405180910390f35b61067a6112f6565b005b6060600060606000806000806000600281111561069557fe5b600d60009054906101000a900460ff1660028111156106b057fe5b1480156106bf57506004544210155b156106d5576106cc61150a565b6106d4611557565b5b600160028111156106e257fe5b600d60009054906101000a900460ff1660028111156106fd57fe5b1480156107165750600160009054906101000a900460ff165b156107245761072361150a565b5b6000600160009054906101000a900460ff166002600360009054906101000a900473ffffffffffffffffffffffffffffffffffffffff16600454600554600654868054600181600116156101000203166002900480601f0160208091040260200160405190810160405280929190818152602001828054600181600116156101000203166002900480156107f95780601f106107ce576101008083540402835291602001916107f9565b820191906000526020600020905b8154815290600101906020018083116107dc57829003601f168201915b50505050509650848054600181600116156101000203166002900480601f0160208091040260200160405190810160405280929190818152602001828054600181600116156101000203166002900480156108955780601f1061086a57610100808354040283529160200191610895565b820191906000526020600020905b81548152906001019060200180831161087857829003601f168201915b50505050509450965096509650965096509650965090919293949596565b60606000606060008060008060608060008060028111156108d057fe5b600d60009054906101000a900460ff1660028111156108eb57fe5b1480156108fa57506004544210155b156109105761090761150a565b61090f611557565b5b6001600281111561091d57fe5b600d60009054906101000a900460ff16600281111561093857fe5b1480156109515750600160009054906101000a900460ff165b1561095f5761095e61150a565b5b600360009054906101000a900473ffffffffffffffffffffffffffffffffffffffff1673ffffffffffffffffffffffffffffffffffffffff163373ffffffffffffffffffffffffffffffffffffffff1614806109bc575060045442115b15156109c757600080fd5b6000600160009054906101000a900460ff166002600360009054906101000a900473ffffffffffffffffffffffffffffffffffffffff1660045460055460065460076008600960009054906101000a900473ffffffffffffffffffffffffffffffffffffffff16898054600181600116156101000203166002900480601f016020809104026020016040519081016040528092919081815260200182805460018160011615610100020316600290048015610ac35780601f10610a9857610100808354040283529160200191610ac3565b820191906000526020600020905b815481529060010190602001808311610aa657829003601f168201915b50505050509950878054600181600116156101000203166002900480601f016020809104026020016040519081016040528092919081815260200182805460018160011615610100020316600290048015610b5f5780601f10610b3457610100808354040283529160200191610b5f565b820191906000526020600020905b815481529060010190602001808311610b4257829003601f168201915b50505050509750828054600181600116156101000203166002900480601f016020809104026020016040519081016040528092919081815260200182805460018160011615610100020316600290048015610bfb5780601f10610bd057610100808354040283529160200191610bfb565b820191906000526020600020905b815481529060010190602001808311610bde57829003601f168201915b50505050509250818054600181600116156101000203166002900480601f016020809104026020016040519081016040528092919081815260200182805460018160011615610100020316600290048015610c975780601f10610c6c57610100808354040283529160200191610c97565b820191906000526020600020905b815481529060010190602001808311610c7a57829003601f168201915b50505050509150995099509950995099509950995099509950995090919293949596979899565b600080600090505b600c80549050811015610d5657600c81815481101515610ce257fe5b9060005260206000200160009054906101000a900473ffffffffffffffffffffffffffffffffffffffff1673ffffffffffffffffffffffffffffffffffffffff163373ffffffffffffffffffffffffffffffffffffffff161415610d495760019150610d5b565b8080600101915050610cc6565b600091505b5090565b600d60009054906101000a900460ff1681565b610e0233600c805480602002602001604051908101604052809291908181526020018280548015610df857602002820191906000526020600020905b8160009054906101000a900473ffffffffffffffffffffffffffffffffffffffff1673ffffffffffffffffffffffffffffffffffffffff1681526020019060010190808311610dae575b5050505050611b8d565b1515610e0d57600080fd5b60006002811115610e1a57fe5b600d60009054906101000a900460ff166002811115610e3557fe5b148015610e4457506004544210155b15610e5a57610e5161150a565b610e59611557565b5b60016002811115610e6757fe5b600d60009054906101000a900460ff166002811115610e8257fe5b148015610e9b5750600160009054906101000a900460ff165b15610ea957610ea861150a565b5b6000806002811115610eb757fe5b600d60009054906101000a900460ff166002811115610ed257fe5b141515610ede57600080fd5b6004544211151515610eef57600080fd5b600b60003373ffffffffffffffffffffffffffffffffffffffff1673ffffffffffffffffffffffffffffffffffffffff16815260200190815260200160002060010160009054906101000a900460ff16151515610f4b57600080fd5b81600b60003373ffffffffffffffffffffffffffffffffffffffff1673ffffffffffffffffffffffffffffffffffffffff1681526020019081526020016000206000019080519060200190610fa1929190611f93565b506001600b60003373ffffffffffffffffffffffffffffffffffffffff1673ffffffffffffffffffffffffffffffffffffffff16815260200190815260200160002060010160006101000a81548160ff02191690831515021790555042600b60003373ffffffffffffffffffffffffffffffffffffffff1673ffffffffffffffffffffffffffffffffffffffff168152602001908152602001600020600301819055505050565b60606110da33600c8054806020026020016040519081016040528092919081815260200182805480156110d057602002820191906000526020600020905b8160009054906101000a900473ffffffffffffffffffffffffffffffffffffffff1673ffffffffffffffffffffffffffffffffffffffff1681526020019060010190808311611086575b5050505050611b8d565b15156110e557600080fd5b600060028111156110f257fe5b600d60009054906101000a900460ff16600281111561110d57fe5b14801561111c57506004544210155b156111325761112961150a565b611131611557565b5b6001600281111561113f57fe5b600d60009054906101000a900460ff16600281111561115a57fe5b1480156111735750600160009054906101000a900460ff165b156111815761118061150a565b5b60078054600181600116156101000203166002900480601f0160208091040260200160405190810160405280929190818152602001828054600181600116156101000203166002900480156112175780601f106111ec57610100808354040283529160200191611217565b820191906000526020600020905b8154815290600101906020018083116111fa57829003601f168201915b5050505050905090565b600b602052806000526040600020600091509050806000018054600181600116156101000203166002900480601f0160208091040260200160405190810160405280929190818152602001828054600181600116156101000203166002900480156112cd5780601f106112a2576101008083540402835291602001916112cd565b820191906000526020600020905b8154815290600101906020018083116112b057829003601f168201915b5050505050908060010160009054906101000a900460ff16908060020154908060030154905084565b6000600281111561130357fe5b600d60009054906101000a900460ff16600281111561131e57fe5b14801561132d57506004544210155b156113435761133a61150a565b611342611557565b5b6001600281111561135057fe5b600d60009054906101000a900460ff16600281111561136b57fe5b1480156113845750600160009054906101000a900460ff165b156113925761139161150a565b5b60008060028111156113a057fe5b600d60009054906101000a900460ff1660028111156113bb57fe5b1415156113c757600080fd5b60055434101515156113d857600080fd5b608060405190810160405280602060405190810160405280600081525081526020016000151581526020014281526020016000815250600b60003373ffffffffffffffffffffffffffffffffffffffff1673ffffffffffffffffffffffffffffffffffffffff1681526020019081526020016000206000820151816000019080519060200190611469929190612013565b5060208201518160010160006101000a81548160ff0219169083151502179055506040820151816002015560608201518160030155905050600c3390806001815401808255809150509060018203906000526020600020016000909192909190916101000a81548173ffffffffffffffffffffffffffffffffffffffff021916908373ffffffffffffffffffffffffffffffffffffffff1602179055505050565b6001600d60009054906101000a900460ff16600281111561152757fe5b01600281111561153357fe5b600d60006101000a81548160ff0219169083600281111561155057fe5b0217905550565b6000806000806000600281111561156a57fe5b600d60009054906101000a900460ff16600281111561158557fe5b14801561159457506004544210155b156115aa576115a161150a565b6115a9611557565b5b600160028111156115b757fe5b600d60009054906101000a900460ff1660028111156115d257fe5b1480156115eb5750600160009054906101000a900460ff165b156115f9576115f861150a565b5b600180600281111561160757fe5b600d60009054906101000a900460ff16600281111561162257fe5b14151561162e57600080fd5b600160009054906101000a900460ff1615151561164a57600080fd5b621000009450600093505b600c80549050841015611a9857600b6000600c8681548110151561167557fe5b9060005260206000200160009054906101000a900473ffffffffffffffffffffffffffffffffffffffff1673ffffffffffffffffffffffffffffffffffffffff1673ffffffffffffffffffffffffffffffffffffffff16815260200190815260200160002092506117f86040805190810160405280600881526020017f5375626d69743a200000000000000000000000000000000000000000000000008152508460806040519081016040529081600082018054600181600116156101000203166002900480601f0160208091040260200160405190810160405280929190818152602001828054600181600116156101000203166002900480156117bb5780601f10611790576101008083540402835291602001916117bb565b820191906000526020600020905b81548152906001019060200180831161179e57829003601f168201915b505050505081526020016001820160009054906101000a900460ff1615151515815260200160028201548152602001600382015481525050611c0b565b8260010160009054906101000a900460ff1680156119525750611951836000018054600181600116156101000203166002900480601f0160208091040260200160405190810160405280929190818152602001828054600181600116156101000203166002900480156118ac5780601f10611881576101008083540402835291602001916118ac565b820191906000526020600020905b81548152906001019060200180831161188f57829003601f168201915b505050505060088054600181600116156101000203166002900480601f0160208091040260200160405190810160405280929190818152602001828054600181600116156101000203166002900480156119475780601f1061191c57610100808354040283529160200191611947565b820191906000526020600020905b81548152906001019060200180831161192a57829003601f168201915b5050505050611d3e565b5b15611a8b57826002015483600301540391506119a36040805190810160405280600681526020017f6c6173743a20000000000000000000000000000000000000000000000000000081525083611e17565b84821015611a8a57819450600c848154811015156119bd57fe5b9060005260206000200160009054906101000a900473ffffffffffffffffffffffffffffffffffffffff16600960006101000a81548173ffffffffffffffffffffffffffffffffffffffff021916908373ffffffffffffffffffffffffffffffffffffffff160217905550611a896040805190810160405280600881526020017f57696e6e65723a20000000000000000000000000000000000000000000000000815250600960009054906101000a900473ffffffffffffffffffffffffffffffffffffffff16611ebf565b5b5b8380600101945050611655565b600960009054906101000a900473ffffffffffffffffffffffffffffffffffffffff1673ffffffffffffffffffffffffffffffffffffffff166108fc6006549081150290604051600060405180830381858888f19350505050158015611b02573d6000803e3d6000fd5b50611b646040805190810160405280600881526020017f57696e6e65723a20000000000000000000000000000000000000000000000000815250600960009054906101000a900473ffffffffffffffffffffffffffffffffffffffff16611ebf565b60018060006101000a81548160ff021916908315150217905550611b8661150a565b5050505050565b600080600090505b8251811015611bff578373ffffffffffffffffffffffffffffffffffffffff168382815181101515611bc357fe5b9060200190602002015173ffffffffffffffffffffffffffffffffffffffff161415611bf25760019150611c04565b8080600101915050611b95565b600091505b5092915050565b7f5a9b067eb1efcb7946bb79cb8214712f2057c2ed65dde70cba47f800e27a5b5e8282600001518360200151846040015185606001510360405180806020018060200185151515158152602001848152602001838103835287818151815260200191508051906020019080838360005b83811015611c96578082015181840152602081019050611c7b565b50505050905090810190601f168015611cc35780820380516001836020036101000a031916815260200191505b50838103825286818151815260200191508051906020019080838360005b83811015611cfc578082015181840152602081019050611ce1565b50505050905090810190601f168015611d295780820380516001836020036101000a031916815260200191505b50965050505050505060405180910390a15050565b6000816040518082805190602001908083835b602083101515611d765780518252602082019150602081019050602083039250611d51565b6001836020036101000a038019825116818451168082178552505050505050905001915050604051809103902060001916836040518082805190602001908083835b602083101515611ddd5780518252602082019150602081019050602083039250611db8565b6001836020036101000a03801982511681845116808217855250505050505090500191505060405180910390206000191614905092915050565b7f3b53f2745f01e9cc7d8317d92cca0b2e25a1e0f710c5b65c2da4002d794e399f82826040518080602001838152602001828103825284818151815260200191508051906020019080838360005b83811015611e80578082015181840152602081019050611e65565b50505050905090810190601f168015611ead5780820380516001836020036101000a031916815260200191505b50935050505060405180910390a15050565b7f62ddffe5b5108385f7a590f100e1ee414ad9551a31f089e64e82998440785e1e828260405180806020018373ffffffffffffffffffffffffffffffffffffffff1673ffffffffffffffffffffffffffffffffffffffff168152602001828103825284818151815260200191508051906020019080838360005b83811015611f54578082015181840152602081019050611f39565b50505050905090810190601f168015611f815780820380516001836020036101000a031916815260200191505b50935050505060405180910390a15050565b828054600181600116156101000203166002900490600052602060002090601f016020900481019282601f10611fd457805160ff1916838001178555612002565b82800160010185558215612002579182015b82811115612001578251825591602001919060010190611fe6565b5b50905061200f9190612093565b5090565b828054600181600116156101000203166002900490600052602060002090601f016020900481019282601f1061205457805160ff1916838001178555612082565b82800160010185558215612082579182015b82811115612081578251825591602001919060010190612066565b5b50905061208f9190612093565b5090565b6120b591905b808211156120b1576000816000905550600101612099565b5090565b905600a165627a7a72305820eded4795787e7f66958f5e9bd3c434b7beb3d2682a461a467090f98524a8a2770029",
  "source": "pragma solidity ^0.4.0;\n\ncontract Contest {\n    \n    string title;   // \n    bool isFinished;    // \n    string desc;    // \n    address sponsor;    // \n    uint ddl;       // \n    uint cost;      // \n    uint bonus;     // \n    string content;     // \n    string answer;      // \n    address winner;     // \n\n    uint private Sponsorship = 100;  // \n\n    struct Submit{\n        string content;\n        bool isSubmitted;\n        uint begin;\n        uint end;\n    }\n    \n    enum Stages {\n        ContestRunning,\n        ContestRevealing,\n        ContestFinished\n    }\n    \n    mapping(address => Submit) public submisstions; // \n    address[] participants;\n    Stages public stage = Stages.ContestRunning;\n    \n    // \n    constructor(string mTitle, string mDesc, uint mDDL, uint mCost, uint mBonus, string mContent, string mAnswer) public payable {\n        require(msg.value >= Sponsorship + mBonus); //  Sponsorshipwei, bonus\n        require(mDDL > 0);  // 1\n        title = mTitle;\n        isFinished = false;\n        desc = mDesc;\n        sponsor = msg.sender;\n        ddl = mDDL;\n        cost = mCost;\n        bonus = mBonus;\n        content = mContent;\n        answer = mAnswer;\n        winner = msg.sender;\n    }\n    \n    // \n    function partcipate() public payable timedTransitions OnlyAtStage(Stages.ContestRunning){\n        require(msg.value >= cost);     // \n        submisstions[msg.sender] = Submit(\"\", false, now, 0);\n        participants.push(msg.sender);\n    }\n    \n    // \n    function submit(string _content) public onlyAllowedParticipants timedTransitions OnlyAtStage(Stages.ContestRunning){\n        require(now <= ddl);    // ddl\n        require(!submisstions[msg.sender].isSubmitted);     // \n        submisstions[msg.sender].content = _content;\n        submisstions[msg.sender].isSubmitted = true;\n        submisstions[msg.sender].end = now;\n    }\n    \n    // \n    function getContestBaseInfo() public timedTransitions returns(string, bool, string, address, uint, uint, uint){\n        return (title, isFinished, desc, sponsor, ddl, cost, bonus);\n    }\n    \n    //  ()\n    function getContestContent() public onlyAllowedParticipants timedTransitions returns(string){\n        return content;\n    }\n    \n    // , ddl\n    function checkWinner() internal timedTransitions OnlyAtStage(Stages.ContestRevealing) transitionNext{\n        require(!isFinished);   // \n        uint minConsume = 1 << 20;\n        for(uint i = 0; i < participants.length; i++){\n            Submit storage s = submisstions[participants[i]];\n            log(\"Submit: \", s);\n            // \n            if(s.isSubmitted && compareStringsbyBytes(s.content, answer)){\n                uint last = s.end - s.begin;\n                log(\"last: \", last);\n                // \n                if(last < minConsume) {\n                    minConsume = last;\n                    winner = participants[i];\n                    log(\"Winner: \", winner);\n                }\n            }\n        }\n        // \n        winner.transfer(bonus);\n        log(\"Winner: \", winner);\n        isFinished = true;\n    }\n    \n    // , sponser\n    function getContestAllInfo() public timedTransitions onlyAllowedSponsorOrContestEnd returns(string, bool, string, address, uint, uint, uint, string, string, address) {\n        return (title, isFinished, desc, sponsor, ddl, cost, bonus, content, answer, winner);\n    }\n\n    // \n    function isParticipant(address user, address[] users) private pure returns (bool){\n        for(uint i = 0; i < users.length; i++){\n            if(users[i] == user) {\n                return true;\n            }\n        }\n        return false;\n    }\n\n    // \n    function isParticipant() public view returns (bool){\n        for(uint i = 0; i < participants.length; i++){\n            if(msg.sender == participants[i]) {\n                return true;\n            }\n        }\n        return false;\n    }\n    \n    \n    // modifier \n    modifier onlyAllowedParticipants{\n        require(isParticipant(msg.sender, participants));\n        _;\n    }\n    \n    // \n    modifier onlyAllowedSponsorOrContestEnd{\n        require(msg.sender==sponsor || now > ddl);\n        _;\n    }\n    \n    // \n    modifier OnlyAtStage(Stages _stage){\n        require(stage == _stage);\n        _;\n    }\n    \n    // \n    modifier transitionNext(){\n        _;\n        nextStage();\n    }\n\n    \n    // \n    modifier timedTransitions() {\n        if(stage == Stages.ContestRunning && now >= ddl){\n            // ddlcheckWinner()\n            nextStage();\n            checkWinner();\n        }\n        if(stage == Stages.ContestRevealing && isFinished)\n            nextStage();\n        _;\n    }\n\n    // \n    function compareStringsbyBytes(string s1, string s2) internal pure returns(bool){\n        return keccak256(bytes(s1)) == keccak256(bytes(s2));\n    }\n    \n    // Logdebug\n    event Log(string, string, bool, uint);\n    function log(string k, Submit s) internal {\n        emit Log(k, s.content, s.isSubmitted, s.end-s.begin);\n    }\n    \n    event LogInt(string, uint);\n    function log(string k, uint s) internal {\n        emit LogInt(k, s);\n    }\n    \n    event LogAddress(string, address);\n    function log(string k, address s) internal {\n        emit LogAddress(k, s);\n    }\n    \n    // \n    function nextStage() internal{\n        stage = Stages(uint(stage) + 1);\n    }\n    \n}\n",
  "sourcePath": "/Users/carolsum/Desktop/dapp/contracts/Contest.sol",
  "compiler": {
    "name": "solc",
    "version": "0.4.24+commit.e67f0147.Emscripten.clang"
  },
  "schemaVersion": "2.0.1",
  "updatedAt": "2018-12-27T08:56:44.961Z"
}