{
  "contractName": "Playground",
  "abi": [
    {
      "constant": true,
      "inputs": [
        {
          "name": "",
          "type": "uint256"
        }
      ],
      "name": "contests",
      "outputs": [
        {
          "name": "",
          "type": "address"
        }
      ],
      "payable": false,
      "stateMutability": "view",
      "type": "function"
    },
    {
      "constant": false,
      "inputs": [
        {
          "name": "mTitle",
          "type": "string"
        },
        {
          "name": "mDesc",
          "type": "string"
        },
        {
          "name": "mDDL",
          "type": "uint256"
        },
        {
          "name": "mCost",
          "type": "uint256"
        },
        {
          "name": "mBonus",
          "type": "uint256"
        },
        {
          "name": "mContent",
          "type": "string"
        },
        {
          "name": "mAnswer",
          "type": "string"
        }
      ],
      "name": "addContest",
      "outputs": [
        {
          "name": "",
          "type": "address"
        }
      ],
      "payable": true,
      "stateMutability": "payable",
      "type": "function"
    },
    {
      "constant": true,
      "inputs": [],
      "name": "getContests",
      "outputs": [
        {
          "name": "",
          "type": "address[]"
        }
      ],
      "payable": false,
      "stateMutability": "view",
      "type": "function"
    },
    {
      "constant": true,
      "inputs": [],
      "name": "getSponsorredContestsNum",
      "outputs": [
        {
          "name": "",
          "type": "uint256"
        }
      ],
      "payable": false,
      "stateMutability": "view",
      "type": "function"
    },
    {
      "constant": true,
      "inputs": [
        {
          "name": "id",
          "type": "uint256"
        }
      ],
      "name": "getSponsorredContestById",
      "outputs": [
        {
          "name": "",
          "type": "address"
        }
      ],
      "payable": false,
      "stateMutability": "view",
      "type": "function"
    },
    {
      "constant": true,
      "inputs": [],
      "name": "getPartcipatedContestsNum",
      "outputs": [
        {
          "name": "",
          "type": "uint256"
        }
      ],
      "payable": false,
      "stateMutability": "view",
      "type": "function"
    }
  ],
  "bytecode": "0x608060405234801561001057600080fd5b50612d12806100206000396000f300608060405260043610610078576000357c0100000000000000000000000000000000000000000000000000000000900463ffffffff16806329eb40351461007d5780633d25790314610209578063602e381f146102345780639d7ed738146102a1578063bfaba76a1461030e578063e39d53ff1461037a575b600080fd5b6101c7600480360381019080803590602001908201803590602001908080601f0160208091040260200160405190810160405280939291908181526020018383808284378201915050505050509192919290803590602001908201803590602001908080601f0160208091040260200160405190810160405280939291908181526020018383808284378201915050505050509192919290803590602001909291908035906020019092919080359060200190929190803590602001908201803590602001908080601f0160208091040260200160405190810160405280939291908181526020018383808284378201915050505050509192919290803590602001908201803590602001908080601f01602080910402602001604051908101604052809392919081815260200183838082843782019150505050505091929192905050506103a5565b604051808273ffffffffffffffffffffffffffffffffffffffff1673ffffffffffffffffffffffffffffffffffffffff16815260200191505060405180910390f35b34801561021557600080fd5b5061021e6106b8565b6040518082815260200191505060405180910390f35b34801561024057600080fd5b5061025f60048036038101908080359060200190929190505050610702565b604051808273ffffffffffffffffffffffffffffffffffffffff1673ffffffffffffffffffffffffffffffffffffffff16815260200191505060405180910390f35b3480156102ad57600080fd5b506102cc60048036038101908080359060200190929190505050610848565b604051808273ffffffffffffffffffffffffffffffffffffffff1673ffffffffffffffffffffffffffffffffffffffff16815260200191505060405180910390f35b34801561031a57600080fd5b50610323610886565b6040518080602001828103825283818151815260200191508051906020019060200280838360005b8381101561036657808201518184015260208101905061034b565b505050509050019250505060405180910390f35b34801561038657600080fd5b5061038f610914565b6040518082815260200191505060405180910390f35b60008034898989898989896103b861095e565b808060200180602001888152602001878152602001868152602001806020018060200185810385528c818151815260200191508051906020019080838360005b838110156104135780820151818401526020810190506103f8565b50505050905090810190601f1680156104405780820380516001836020036101000a031916815260200191505b5085810384528b818151815260200191508051906020019080838360005b8381101561047957808201518184015260208101905061045e565b50505050905090810190601f1680156104a65780820380516001836020036101000a031916815260200191505b50858103835287818151815260200191508051906020019080838360005b838110156104df5780820151818401526020810190506104c4565b50505050905090810190601f16801561050c5780820380516001836020036101000a031916815260200191505b50858103825286818151815260200191508051906020019080838360005b8381101561054557808201518184015260208101905061052a565b50505050905090810190601f1680156105725780820380516001836020036101000a031916815260200191505b509b5050505050505050505050506040518091039082f08015801561059b573d6000803e3d6000fd5b509050905060018190806001815401808255809150509060018203906000526020600020016000909192909190916101000a81548173ffffffffffffffffffffffffffffffffffffffff021916908373ffffffffffffffffffffffffffffffffffffffff16021790555050600360003373ffffffffffffffffffffffffffffffffffffffff1673ffffffffffffffffffffffffffffffffffffffff1681526020019081526020016000208190806001815401808255809150509060018203906000526020600020016000909192909190916101000a81548173ffffffffffffffffffffffffffffffffffffffff021916908373ffffffffffffffffffffffffffffffffffffffff1602179055505080915050979650505050505050565b6000600360003373ffffffffffffffffffffffffffffffffffffffff1673ffffffffffffffffffffffffffffffffffffffff16815260200190815260200160002080549050905090565b6000600260003373ffffffffffffffffffffffffffffffffffffffff1673ffffffffffffffffffffffffffffffffffffffff1681526020019081526020016000208054905082108015610756575081600011155b15156107ca576040517f08c379a000000000000000000000000000000000000000000000000000000000815260040180806020018281038252600c8152602001807fe7b4a2e5bc95e8b68ae7958c000000000000000000000000000000000000000081525060200191505060405180910390fd5b600360003373ffffffffffffffffffffffffffffffffffffffff1673ffffffffffffffffffffffffffffffffffffffff1681526020019081526020016000208281548110151561081657fe5b9060005260206000200160009054906101000a900473ffffffffffffffffffffffffffffffffffffffff169050919050565b60018181548110151561085757fe5b906000526020600020016000915054906101000a900473ffffffffffffffffffffffffffffffffffffffff1681565b6060600180548060200260200160405190810160405280929190818152602001828054801561090a57602002820191906000526020600020905b8160009054906101000a900473ffffffffffffffffffffffffffffffffffffffff1673ffffffffffffffffffffffffffffffffffffffff16815260200190600101908083116108c0575b5050505050905090565b6000600260003373ffffffffffffffffffffffffffffffffffffffff1673ffffffffffffffffffffffffffffffffffffffff16815260200190815260200160002080549050905090565b6040516123788061096f83390190560060806040526064600a556000600d60006101000a81548160ff021916908360028111156200002957fe5b021790555060405162002378380380620023788339810180604052810190808051820192919060200180518201929190602001805190602001909291908051906020019092919080519060200190929190805182019291906020018051820192919050505082600a54013410151515620000a257600080fd5b600085111515620000b257600080fd5b8660009080519060200190620000ca929190620001d5565b506000600160006101000a81548160ff0219169083151502179055508560029080519060200190620000fe929190620001d5565b5033600360006101000a81548173ffffffffffffffffffffffffffffffffffffffff021916908373ffffffffffffffffffffffffffffffffffffffff16021790555084600481905550836005819055508260068190555081600790805190602001906200016d929190620001d5565b50806008908051906020019062000186929190620001d5565b5033600960006101000a81548173ffffffffffffffffffffffffffffffffffffffff021916908373ffffffffffffffffffffffffffffffffffffffff1602179055505050505050505062000284565b828054600181600116156101000203166002900490600052602060002090601f016020900481019282601f106200021857805160ff191683800117855562000249565b8280016001018555821562000249579182015b82811115620002485782518255916020019190600101906200022b565b5b5090506200025891906200025c565b5090565b6200028191905b808211156200027d57600081600090555060010162000263565b5090565b90565b6120e480620002946000396000f30060806040526004361061008e576000357c0100000000000000000000000000000000000000000000000000000000900463ffffffff1680632738c25a14610093578063495e03a3146101e25780637954ec7b1461043c578063c040e6b81461046b578063d99a8dc3146104a4578063f1ba2d541461050d578063f2a304161461059d578063f3b51b0d14610672575b600080fd5b34801561009f57600080fd5b506100a861067c565b604051808060200188151515158152602001806020018773ffffffffffffffffffffffffffffffffffffffff1673ffffffffffffffffffffffffffffffffffffffff16815260200186815260200185815260200184815260200183810383528a818151815260200191508051906020019080838360005b8381101561013a57808201518184015260208101905061011f565b50505050905090810190601f1680156101675780820380516001836020036101000a031916815260200191505b50838103825288818151815260200191508051906020019080838360005b838110156101a0578082015181840152602081019050610185565b50505050905090810190601f1680156101cd5780820380516001836020036101000a031916815260200191505b50995050505050505050505060405180910390f35b3480156101ee57600080fd5b506101f76108b3565b60405180806020018b151515158152602001806020018a73ffffffffffffffffffffffffffffffffffffffff1673ffffffffffffffffffffffffffffffffffffffff16815260200189815260200188815260200187815260200180602001806020018673ffffffffffffffffffffffffffffffffffffffff1673ffffffffffffffffffffffffffffffffffffffff16815260200185810385528f818151815260200191508051906020019080838360005b838110156102c35780820151818401526020810190506102a8565b50505050905090810190601f1680156102f05780820380516001836020036101000a031916815260200191505b5085810384528d818151815260200191508051906020019080838360005b8381101561032957808201518184015260208101905061030e565b50505050905090810190601f1680156103565780820380516001836020036101000a031916815260200191505b50858103835288818151815260200191508051906020019080838360005b8381101561038f578082015181840152602081019050610374565b50505050905090810190601f1680156103bc5780820380516001836020036101000a031916815260200191505b50858103825287818151815260200191508051906020019080838360005b838110156103f55780820151818401526020810190506103da565b50505050905090810190601f1680156104225780820380516001836020036101000a031916815260200191505b509e50505050505050505050505050505060405180910390f35b34801561044857600080fd5b50610451610cbe565b604051808215151515815260200191505060405180910390f35b34801561047757600080fd5b50610480610d5f565b6040518082600281111561049057fe5b60ff16815260200191505060405180910390f35b3480156104b057600080fd5b5061050b600480360381019080803590602001908201803590602001908080601f0160208091040260200160405190810160405280939291908181526020018383808284378201915050505050509192919290505050610d72565b005b34801561051957600080fd5b50610522611048565b6040518080602001828103825283818151815260200191508051906020019080838360005b83811015610562578082015181840152602081019050610547565b50505050905090810190601f16801561058f5780820380516001836020036101000a031916815260200191505b509250505060405180910390f35b3480156105a957600080fd5b506105de600480360381019080803573ffffffffffffffffffffffffffffffffffffffff169060200190929190505050611221565b604051808060200185151515158152602001848152602001838152602001828103825286818151815260200191508051906020019080838360005b83811015610634578082015181840152602081019050610619565b50505050905090810190601f1680156106615780820380516001836020036101000a031916815260200191505b509550505050505060405180910390f35b61067a6112f6565b005b6060600060606000806000806000600281111561069557fe5b600d60009054906101000a900460ff1660028111156106b057fe5b1480156106bf57506004544210155b156106d5576106cc61150a565b6106d4611557565b5b600160028111156106e257fe5b600d60009054906101000a900460ff1660028111156106fd57fe5b1480156107165750600160009054906101000a900460ff165b156107245761072361150a565b5b6000600160009054906101000a900460ff166002600360009054906101000a900473ffffffffffffffffffffffffffffffffffffffff16600454600554600654868054600181600116156101000203166002900480601f0160208091040260200160405190810160405280929190818152602001828054600181600116156101000203166002900480156107f95780601f106107ce576101008083540402835291602001916107f9565b820191906000526020600020905b8154815290600101906020018083116107dc57829003601f168201915b50505050509650848054600181600116156101000203166002900480601f0160208091040260200160405190810160405280929190818152602001828054600181600116156101000203166002900480156108955780601f1061086a57610100808354040283529160200191610895565b820191906000526020600020905b81548152906001019060200180831161087857829003601f168201915b50505050509450965096509650965096509650965090919293949596565b60606000606060008060008060608060008060028111156108d057fe5b600d60009054906101000a900460ff1660028111156108eb57fe5b1480156108fa57506004544210155b156109105761090761150a565b61090f611557565b5b6001600281111561091d57fe5b600d60009054906101000a900460ff16600281111561093857fe5b1480156109515750600160009054906101000a900460ff165b1561095f5761095e61150a565b5b600360009054906101000a900473ffffffffffffffffffffffffffffffffffffffff1673ffffffffffffffffffffffffffffffffffffffff163373ffffffffffffffffffffffffffffffffffffffff1614806109bc575060045442115b15156109c757600080fd5b6000600160009054906101000a900460ff166002600360009054906101000a900473ffffffffffffffffffffffffffffffffffffffff1660045460055460065460076008600960009054906101000a900473ffffffffffffffffffffffffffffffffffffffff16898054600181600116156101000203166002900480601f016020809104026020016040519081016040528092919081815260200182805460018160011615610100020316600290048015610ac35780601f10610a9857610100808354040283529160200191610ac3565b820191906000526020600020905b815481529060010190602001808311610aa657829003601f168201915b50505050509950878054600181600116156101000203166002900480601f016020809104026020016040519081016040528092919081815260200182805460018160011615610100020316600290048015610b5f5780601f10610b3457610100808354040283529160200191610b5f565b820191906000526020600020905b815481529060010190602001808311610b4257829003601f168201915b50505050509750828054600181600116156101000203166002900480601f016020809104026020016040519081016040528092919081815260200182805460018160011615610100020316600290048015610bfb5780601f10610bd057610100808354040283529160200191610bfb565b820191906000526020600020905b815481529060010190602001808311610bde57829003601f168201915b50505050509250818054600181600116156101000203166002900480601f016020809104026020016040519081016040528092919081815260200182805460018160011615610100020316600290048015610c975780601f10610c6c57610100808354040283529160200191610c97565b820191906000526020600020905b815481529060010190602001808311610c7a57829003601f168201915b50505050509150995099509950995099509950995099509950995090919293949596979899565b600080600090505b600c80549050811015610d5657600c81815481101515610ce257fe5b9060005260206000200160009054906101000a900473ffffffffffffffffffffffffffffffffffffffff1673ffffffffffffffffffffffffffffffffffffffff163373ffffffffffffffffffffffffffffffffffffffff161415610d495760019150610d5b565b8080600101915050610cc6565b600091505b5090565b600d60009054906101000a900460ff1681565b610e0233600c805480602002602001604051908101604052809291908181526020018280548015610df857602002820191906000526020600020905b8160009054906101000a900473ffffffffffffffffffffffffffffffffffffffff1673ffffffffffffffffffffffffffffffffffffffff1681526020019060010190808311610dae575b5050505050611b8d565b1515610e0d57600080fd5b60006002811115610e1a57fe5b600d60009054906101000a900460ff166002811115610e3557fe5b148015610e4457506004544210155b15610e5a57610e5161150a565b610e59611557565b5b60016002811115610e6757fe5b600d60009054906101000a900460ff166002811115610e8257fe5b148015610e9b5750600160009054906101000a900460ff165b15610ea957610ea861150a565b5b6000806002811115610eb757fe5b600d60009054906101000a900460ff166002811115610ed257fe5b141515610ede57600080fd5b6004544211151515610eef57600080fd5b600b60003373ffffffffffffffffffffffffffffffffffffffff1673ffffffffffffffffffffffffffffffffffffffff16815260200190815260200160002060010160009054906101000a900460ff16151515610f4b57600080fd5b81600b60003373ffffffffffffffffffffffffffffffffffffffff1673ffffffffffffffffffffffffffffffffffffffff1681526020019081526020016000206000019080519060200190610fa1929190611f93565b506001600b60003373ffffffffffffffffffffffffffffffffffffffff1673ffffffffffffffffffffffffffffffffffffffff16815260200190815260200160002060010160006101000a81548160ff02191690831515021790555042600b60003373ffffffffffffffffffffffffffffffffffffffff1673ffffffffffffffffffffffffffffffffffffffff168152602001908152602001600020600301819055505050565b60606110da33600c8054806020026020016040519081016040528092919081815260200182805480156110d057602002820191906000526020600020905b8160009054906101000a900473ffffffffffffffffffffffffffffffffffffffff1673ffffffffffffffffffffffffffffffffffffffff1681526020019060010190808311611086575b5050505050611b8d565b15156110e557600080fd5b600060028111156110f257fe5b600d60009054906101000a900460ff16600281111561110d57fe5b14801561111c57506004544210155b156111325761112961150a565b611131611557565b5b6001600281111561113f57fe5b600d60009054906101000a900460ff16600281111561115a57fe5b1480156111735750600160009054906101000a900460ff165b156111815761118061150a565b5b60078054600181600116156101000203166002900480601f0160208091040260200160405190810160405280929190818152602001828054600181600116156101000203166002900480156112175780601f106111ec57610100808354040283529160200191611217565b820191906000526020600020905b8154815290600101906020018083116111fa57829003601f168201915b5050505050905090565b600b602052806000526040600020600091509050806000018054600181600116156101000203166002900480601f0160208091040260200160405190810160405280929190818152602001828054600181600116156101000203166002900480156112cd5780601f106112a2576101008083540402835291602001916112cd565b820191906000526020600020905b8154815290600101906020018083116112b057829003601f168201915b5050505050908060010160009054906101000a900460ff16908060020154908060030154905084565b6000600281111561130357fe5b600d60009054906101000a900460ff16600281111561131e57fe5b14801561132d57506004544210155b156113435761133a61150a565b611342611557565b5b6001600281111561135057fe5b600d60009054906101000a900460ff16600281111561136b57fe5b1480156113845750600160009054906101000a900460ff165b156113925761139161150a565b5b60008060028111156113a057fe5b600d60009054906101000a900460ff1660028111156113bb57fe5b1415156113c757600080fd5b60055434101515156113d857600080fd5b608060405190810160405280602060405190810160405280600081525081526020016000151581526020014281526020016000815250600b60003373ffffffffffffffffffffffffffffffffffffffff1673ffffffffffffffffffffffffffffffffffffffff1681526020019081526020016000206000820151816000019080519060200190611469929190612013565b5060208201518160010160006101000a81548160ff0219169083151502179055506040820151816002015560608201518160030155905050600c3390806001815401808255809150509060018203906000526020600020016000909192909190916101000a81548173ffffffffffffffffffffffffffffffffffffffff021916908373ffffffffffffffffffffffffffffffffffffffff1602179055505050565b6001600d60009054906101000a900460ff16600281111561152757fe5b01600281111561153357fe5b600d60006101000a81548160ff0219169083600281111561155057fe5b0217905550565b6000806000806000600281111561156a57fe5b600d60009054906101000a900460ff16600281111561158557fe5b14801561159457506004544210155b156115aa576115a161150a565b6115a9611557565b5b600160028111156115b757fe5b600d60009054906101000a900460ff1660028111156115d257fe5b1480156115eb5750600160009054906101000a900460ff165b156115f9576115f861150a565b5b600180600281111561160757fe5b600d60009054906101000a900460ff16600281111561162257fe5b14151561162e57600080fd5b600160009054906101000a900460ff1615151561164a57600080fd5b621000009450600093505b600c80549050841015611a9857600b6000600c8681548110151561167557fe5b9060005260206000200160009054906101000a900473ffffffffffffffffffffffffffffffffffffffff1673ffffffffffffffffffffffffffffffffffffffff1673ffffffffffffffffffffffffffffffffffffffff16815260200190815260200160002092506117f86040805190810160405280600881526020017f5375626d69743a200000000000000000000000000000000000000000000000008152508460806040519081016040529081600082018054600181600116156101000203166002900480601f0160208091040260200160405190810160405280929190818152602001828054600181600116156101000203166002900480156117bb5780601f10611790576101008083540402835291602001916117bb565b820191906000526020600020905b81548152906001019060200180831161179e57829003601f168201915b505050505081526020016001820160009054906101000a900460ff1615151515815260200160028201548152602001600382015481525050611c0b565b8260010160009054906101000a900460ff1680156119525750611951836000018054600181600116156101000203166002900480601f0160208091040260200160405190810160405280929190818152602001828054600181600116156101000203166002900480156118ac5780601f10611881576101008083540402835291602001916118ac565b820191906000526020600020905b81548152906001019060200180831161188f57829003601f168201915b505050505060088054600181600116156101000203166002900480601f0160208091040260200160405190810160405280929190818152602001828054600181600116156101000203166002900480156119475780601f1061191c57610100808354040283529160200191611947565b820191906000526020600020905b81548152906001019060200180831161192a57829003601f168201915b5050505050611d3e565b5b15611a8b57826002015483600301540391506119a36040805190810160405280600681526020017f6c6173743a20000000000000000000000000000000000000000000000000000081525083611e17565b84821015611a8a57819450600c848154811015156119bd57fe5b9060005260206000200160009054906101000a900473ffffffffffffffffffffffffffffffffffffffff16600960006101000a81548173ffffffffffffffffffffffffffffffffffffffff021916908373ffffffffffffffffffffffffffffffffffffffff160217905550611a896040805190810160405280600881526020017f57696e6e65723a20000000000000000000000000000000000000000000000000815250600960009054906101000a900473ffffffffffffffffffffffffffffffffffffffff16611ebf565b5b5b8380600101945050611655565b600960009054906101000a900473ffffffffffffffffffffffffffffffffffffffff1673ffffffffffffffffffffffffffffffffffffffff166108fc6006549081150290604051600060405180830381858888f19350505050158015611b02573d6000803e3d6000fd5b50611b646040805190810160405280600881526020017f57696e6e65723a20000000000000000000000000000000000000000000000000815250600960009054906101000a900473ffffffffffffffffffffffffffffffffffffffff16611ebf565b60018060006101000a81548160ff021916908315150217905550611b8661150a565b5050505050565b600080600090505b8251811015611bff578373ffffffffffffffffffffffffffffffffffffffff168382815181101515611bc357fe5b9060200190602002015173ffffffffffffffffffffffffffffffffffffffff161415611bf25760019150611c04565b8080600101915050611b95565b600091505b5092915050565b7f5a9b067eb1efcb7946bb79cb8214712f2057c2ed65dde70cba47f800e27a5b5e8282600001518360200151846040015185606001510360405180806020018060200185151515158152602001848152602001838103835287818151815260200191508051906020019080838360005b83811015611c96578082015181840152602081019050611c7b565b50505050905090810190601f168015611cc35780820380516001836020036101000a031916815260200191505b50838103825286818151815260200191508051906020019080838360005b83811015611cfc578082015181840152602081019050611ce1565b50505050905090810190601f168015611d295780820380516001836020036101000a031916815260200191505b50965050505050505060405180910390a15050565b6000816040518082805190602001908083835b602083101515611d765780518252602082019150602081019050602083039250611d51565b6001836020036101000a038019825116818451168082178552505050505050905001915050604051809103902060001916836040518082805190602001908083835b602083101515611ddd5780518252602082019150602081019050602083039250611db8565b6001836020036101000a03801982511681845116808217855250505050505090500191505060405180910390206000191614905092915050565b7f3b53f2745f01e9cc7d8317d92cca0b2e25a1e0f710c5b65c2da4002d794e399f82826040518080602001838152602001828103825284818151815260200191508051906020019080838360005b83811015611e80578082015181840152602081019050611e65565b50505050905090810190601f168015611ead5780820380516001836020036101000a031916815260200191505b50935050505060405180910390a15050565b7f62ddffe5b5108385f7a590f100e1ee414ad9551a31f089e64e82998440785e1e828260405180806020018373ffffffffffffffffffffffffffffffffffffffff1673ffffffffffffffffffffffffffffffffffffffff168152602001828103825284818151815260200191508051906020019080838360005b83811015611f54578082015181840152602081019050611f39565b50505050905090810190601f168015611f815780820380516001836020036101000a031916815260200191505b50935050505060405180910390a15050565b828054600181600116156101000203166002900490600052602060002090601f016020900481019282601f10611fd457805160ff1916838001178555612002565b82800160010185558215612002579182015b82811115612001578251825591602001919060010190611fe6565b5b50905061200f9190612093565b5090565b828054600181600116156101000203166002900490600052602060002090601f016020900481019282601f1061205457805160ff1916838001178555612082565b82800160010185558215612082579182015b82811115612081578251825591602001919060010190612066565b5b50905061208f9190612093565b5090565b6120b591905b808211156120b1576000816000905550600101612099565b5090565b905600a165627a7a72305820eded4795787e7f66958f5e9bd3c434b7beb3d2682a461a467090f98524a8a2770029a165627a7a72305820d898f86eb50926391acd857cfdcaaecca4b4cea53b8abd83e6f9599c9396fddb0029",
  "source": "pragma solidity ^0.4.0;\n\nimport \"./Contest.sol\";\n\ncontract Playground {\n    Contest contest;\n    address[] public contests;\n    mapping(address => address[]) partcipatedContests;\n    mapping(address => address[]) sponsoredContests;\n    \n    \n    function addContest(string mTitle, string mDesc, uint mDDL, uint mCost, uint mBonus, string mContent, string mAnswer)\n        public payable returns (address) {\n        address a = (new Contest).value(msg.value)(mTitle, mDesc, mDDL, mCost, mBonus, mContent, mAnswer);\n        contests.push(a);\n        sponsoredContests[msg.sender].push(a);\n        return a;\n    }\n    \n    // , \n    function getContests() public view returns (address[]) {\n        return contests;\n    }\n    \n    function getSponsorredContestsNum() public view returns (uint) {\n        return sponsoredContests[msg.sender].length;\n    }\n    \n    function getSponsorredContestById(uint id) public view returns (address) {\n        require(id < partcipatedContests[msg.sender].length && 0 <= id, \"\");\n        return sponsoredContests[msg.sender][id];\n    }\n    \n    function getPartcipatedContestsNum() public view returns (uint) {\n        return partcipatedContests[msg.sender].length;\n    }\n    \n    // returns view4transaction execution fail\n    // function getParticipatedContestById(uint id) public view returns (address) {\n    //     return partcipatedContests[msg.sender][id];\n    // }\n}\n",
  "sourcePath": "/Users/carolsum/Desktop/dapp/contracts/Playground.sol",
  "compiler": {
    "name": "solc",
    "version": "0.4.24+commit.e67f0147.Emscripten.clang"
  },
  "schemaVersion": "2.0.1",
  "updatedAt": "2018-12-27T08:56:45.324Z"
}